{
	"data": {
		"bytecode": {
			"linkReferences": {},
			"object": "608060405234801561000f575f80fd5b506102588061001d5f395ff3fe608060405234801561000f575f80fd5b506004361061004a575f3560e01c80633a9ebefd1461004e57806360fe47b11461006a5780636d4ce63c146100865780637cf5dab0146100a4575b5f80fd5b6100686004803603810190610063919061013c565b6100c0565b005b610084600480360381019061007f919061013c565b6100da565b005b61008e6100e3565b60405161009b9190610176565b60405180910390f35b6100be60048036038101906100b9919061013c565b6100eb565b005b805f808282546100d091906101bc565b9250508190555050565b805f8190555050565b5f8054905090565b805f808282546100fb91906101ef565b9250508190555050565b5f80fd5b5f819050919050565b61011b81610109565b8114610125575f80fd5b50565b5f8135905061013681610112565b92915050565b5f6020828403121561015157610150610105565b5b5f61015e84828501610128565b91505092915050565b61017081610109565b82525050565b5f6020820190506101895f830184610167565b92915050565b7f4e487b71000000000000000000000000000000000000000000000000000000005f52601160045260245ffd5b5f6101c682610109565b91506101d183610109565b92508282039050818111156101e9576101e861018f565b5b92915050565b5f6101f982610109565b915061020483610109565b925082820190508082111561021c5761021b61018f565b5b9291505056fea2646970667358221220a6a48a629b67cacef35fac4e9c25dffadc9cf697a348af1ebc549b4949dc9f6864736f6c63430008160033",
			"opcodes": "PUSH1 0x80 PUSH1 0x40 MSTORE CALLVALUE DUP1 ISZERO PUSH2 0xF JUMPI PUSH0 DUP1 REVERT JUMPDEST POP PUSH2 0x258 DUP1 PUSH2 0x1D PUSH0 CODECOPY PUSH0 RETURN INVALID PUSH1 0x80 PUSH1 0x40 MSTORE CALLVALUE DUP1 ISZERO PUSH2 0xF JUMPI PUSH0 DUP1 REVERT JUMPDEST POP PUSH1 0x4 CALLDATASIZE LT PUSH2 0x4A JUMPI PUSH0 CALLDATALOAD PUSH1 0xE0 SHR DUP1 PUSH4 0x3A9EBEFD EQ PUSH2 0x4E JUMPI DUP1 PUSH4 0x60FE47B1 EQ PUSH2 0x6A JUMPI DUP1 PUSH4 0x6D4CE63C EQ PUSH2 0x86 JUMPI DUP1 PUSH4 0x7CF5DAB0 EQ PUSH2 0xA4 JUMPI JUMPDEST PUSH0 DUP1 REVERT JUMPDEST PUSH2 0x68 PUSH1 0x4 DUP1 CALLDATASIZE SUB DUP2 ADD SWAP1 PUSH2 0x63 SWAP2 SWAP1 PUSH2 0x13C JUMP JUMPDEST PUSH2 0xC0 JUMP JUMPDEST STOP JUMPDEST PUSH2 0x84 PUSH1 0x4 DUP1 CALLDATASIZE SUB DUP2 ADD SWAP1 PUSH2 0x7F SWAP2 SWAP1 PUSH2 0x13C JUMP JUMPDEST PUSH2 0xDA JUMP JUMPDEST STOP JUMPDEST PUSH2 0x8E PUSH2 0xE3 JUMP JUMPDEST PUSH1 0x40 MLOAD PUSH2 0x9B SWAP2 SWAP1 PUSH2 0x176 JUMP JUMPDEST PUSH1 0x40 MLOAD DUP1 SWAP2 SUB SWAP1 RETURN JUMPDEST PUSH2 0xBE PUSH1 0x4 DUP1 CALLDATASIZE SUB DUP2 ADD SWAP1 PUSH2 0xB9 SWAP2 SWAP1 PUSH2 0x13C JUMP JUMPDEST PUSH2 0xEB JUMP JUMPDEST STOP JUMPDEST DUP1 PUSH0 DUP1 DUP3 DUP3 SLOAD PUSH2 0xD0 SWAP2 SWAP1 PUSH2 0x1BC JUMP JUMPDEST SWAP3 POP POP DUP2 SWAP1 SSTORE POP POP JUMP JUMPDEST DUP1 PUSH0 DUP2 SWAP1 SSTORE POP POP JUMP JUMPDEST PUSH0 DUP1 SLOAD SWAP1 POP SWAP1 JUMP JUMPDEST DUP1 PUSH0 DUP1 DUP3 DUP3 SLOAD PUSH2 0xFB SWAP2 SWAP1 PUSH2 0x1EF JUMP JUMPDEST SWAP3 POP POP DUP2 SWAP1 SSTORE POP POP JUMP JUMPDEST PUSH0 DUP1 REVERT JUMPDEST PUSH0 DUP2 SWAP1 POP SWAP2 SWAP1 POP JUMP JUMPDEST PUSH2 0x11B DUP2 PUSH2 0x109 JUMP JUMPDEST DUP2 EQ PUSH2 0x125 JUMPI PUSH0 DUP1 REVERT JUMPDEST POP JUMP JUMPDEST PUSH0 DUP2 CALLDATALOAD SWAP1 POP PUSH2 0x136 DUP2 PUSH2 0x112 JUMP JUMPDEST SWAP3 SWAP2 POP POP JUMP JUMPDEST PUSH0 PUSH1 0x20 DUP3 DUP5 SUB SLT ISZERO PUSH2 0x151 JUMPI PUSH2 0x150 PUSH2 0x105 JUMP JUMPDEST JUMPDEST PUSH0 PUSH2 0x15E DUP5 DUP3 DUP6 ADD PUSH2 0x128 JUMP JUMPDEST SWAP2 POP POP SWAP3 SWAP2 POP POP JUMP JUMPDEST PUSH2 0x170 DUP2 PUSH2 0x109 JUMP JUMPDEST DUP3 MSTORE POP POP JUMP JUMPDEST PUSH0 PUSH1 0x20 DUP3 ADD SWAP1 POP PUSH2 0x189 PUSH0 DUP4 ADD DUP5 PUSH2 0x167 JUMP JUMPDEST SWAP3 SWAP2 POP POP JUMP JUMPDEST PUSH32 0x4E487B7100000000000000000000000000000000000000000000000000000000 PUSH0 MSTORE PUSH1 0x11 PUSH1 0x4 MSTORE PUSH1 0x24 PUSH0 REVERT JUMPDEST PUSH0 PUSH2 0x1C6 DUP3 PUSH2 0x109 JUMP JUMPDEST SWAP2 POP PUSH2 0x1D1 DUP4 PUSH2 0x109 JUMP JUMPDEST SWAP3 POP DUP3 DUP3 SUB SWAP1 POP DUP2 DUP2 GT ISZERO PUSH2 0x1E9 JUMPI PUSH2 0x1E8 PUSH2 0x18F JUMP JUMPDEST JUMPDEST SWAP3 SWAP2 POP POP JUMP JUMPDEST PUSH0 PUSH2 0x1F9 DUP3 PUSH2 0x109 JUMP JUMPDEST SWAP2 POP PUSH2 0x204 DUP4 PUSH2 0x109 JUMP JUMPDEST SWAP3 POP DUP3 DUP3 ADD SWAP1 POP DUP1 DUP3 GT ISZERO PUSH2 0x21C JUMPI PUSH2 0x21B PUSH2 0x18F JUMP JUMPDEST JUMPDEST SWAP3 SWAP2 POP POP JUMP INVALID LOG2 PUSH5 0x6970667358 0x22 SLT KECCAK256 0xA6 LOG4 DUP11 PUSH3 0x9B67CA 0xCE RETURN PUSH0 0xAC 0x4E SWAP13 0x25 0xDF STATICCALL 0xDC SWAP13 0xF6 SWAP8 LOG3 BASEFEE 0xAF 0x1E 0xBC SLOAD SWAP12 0x49 0x49 0xDC SWAP16 PUSH9 0x64736F6C6343000816 STOP CALLER "
		},
		"gasEstimates": {
			"creation": {
				"codeDepositCost": "120000",
				"executionCost": "163",
				"totalCost": "120163"
			},
			"external": {
				"decrement(uint256)": "infinite",
				"get()": "2454",
				"increment(uint256)": "infinite",
				"set(uint256)": "22514"
			}
		},
		"methodIdentifiers": {
			"decrement(uint256)": "3a9ebefd",
			"get()": "6d4ce63c",
			"increment(uint256)": "7cf5dab0",
			"set(uint256)": "60fe47b1"
		}
	},
	"abi": [
		{
			"inputs": [
				{
					"internalType": "uint256",
					"name": "n",
					"type": "uint256"
				}
			],
			"name": "decrement",
			"outputs": [],
			"stateMutability": "nonpayable",
			"type": "function"
		},
		{
			"inputs": [],
			"name": "get",
			"outputs": [
				{
					"internalType": "uint256",
					"name": "",
					"type": "uint256"
				}
			],
			"stateMutability": "view",
			"type": "function"
		},
		{
			"inputs": [
				{
					"internalType": "uint256",
					"name": "n",
					"type": "uint256"
				}
			],
			"name": "increment",
			"outputs": [],
			"stateMutability": "nonpayable",
			"type": "function"
		},
		{
			"inputs": [
				{
					"internalType": "uint256",
					"name": "x",
					"type": "uint256"
				}
			],
			"name": "set",
			"outputs": [],
			"stateMutability": "nonpayable",
			"type": "function"
		}
	]
}