{
	"solidity/FundMeV3.sol": {
		"FundMe": {
			"abi": [
				{
					"inputs": [],
					"stateMutability": "nonpayable",
					"type": "constructor"
				},
				{
					"inputs": [
						{
							"internalType": "address",
							"name": "",
							"type": "address"
						}
					],
					"name": "addressToAmountFunded",
					"outputs": [
						{
							"internalType": "uint256",
							"name": "",
							"type": "uint256"
						}
					],
					"stateMutability": "view",
					"type": "function"
				},
				{
					"inputs": [],
					"name": "fund",
					"outputs": [],
					"stateMutability": "payable",
					"type": "function"
				},
				{
					"inputs": [
						{
							"internalType": "uint256",
							"name": "",
							"type": "uint256"
						}
					],
					"name": "funders",
					"outputs": [
						{
							"internalType": "address",
							"name": "",
							"type": "address"
						}
					],
					"stateMutability": "view",
					"type": "function"
				},
				{
					"inputs": [],
					"name": "minUSD",
					"outputs": [
						{
							"internalType": "uint256",
							"name": "",
							"type": "uint256"
						}
					],
					"stateMutability": "view",
					"type": "function"
				},
				{
					"inputs": [],
					"name": "owner",
					"outputs": [
						{
							"internalType": "address",
							"name": "",
							"type": "address"
						}
					],
					"stateMutability": "view",
					"type": "function"
				},
				{
					"inputs": [],
					"name": "withdrawAllMoney",
					"outputs": [],
					"stateMutability": "nonpayable",
					"type": "function"
				}
			],
			"devdoc": {
				"kind": "dev",
				"methods": {},
				"version": 1
			},
			"evm": {
				"assembly": "    /* \"solidity/FundMeV3.sol\":113:1937  contract FundMe {... */\n  mstore(0x40, 0x80)\n    /* \"solidity/FundMeV3.sol\":340:389  constructor() {... */\n  callvalue\n  dup1\n  iszero\n  tag_1\n  jumpi\n  0x00\n  dup1\n  revert\ntag_1:\n  pop\n    /* \"solidity/FundMeV3.sol\":372:382  msg.sender */\n  caller\n    /* \"solidity/FundMeV3.sol\":364:369  owner */\n  0x02\n  0x00\n    /* \"solidity/FundMeV3.sol\":364:382  owner = msg.sender */\n  0x0100\n  exp\n  dup2\n  sload\n  dup2\n  0xffffffffffffffffffffffffffffffffffffffff\n  mul\n  not\n  and\n  swap1\n  dup4\n  0xffffffffffffffffffffffffffffffffffffffff\n  and\n  mul\n  or\n  swap1\n  sstore\n  pop\n    /* \"solidity/FundMeV3.sol\":113:1937  contract FundMe {... */\n  dataSize(sub_0)\n  dup1\n  dataOffset(sub_0)\n  0x00\n  codecopy\n  0x00\n  return\nstop\n\nsub_0: assembly {\n        /* \"solidity/FundMeV3.sol\":113:1937  contract FundMe {... */\n      mstore(0x40, 0x80)\n      jumpi(tag_1, lt(calldatasize, 0x04))\n      shr(0xe0, calldataload(0x00))\n      dup1\n      0x1b52b9de\n      eq\n      tag_2\n      jumpi\n      dup1\n      0x3e47d6f3\n      eq\n      tag_3\n      jumpi\n      dup1\n      0x8da5cb5b\n      eq\n      tag_4\n      jumpi\n      dup1\n      0xb60d4288\n      eq\n      tag_5\n      jumpi\n      dup1\n      0xdc0d3dff\n      eq\n      tag_6\n      jumpi\n      dup1\n      0xdc992aa0\n      eq\n      tag_7\n      jumpi\n    tag_1:\n      0x00\n      dup1\n      revert\n        /* \"solidity/FundMeV3.sol\":1191:1934  function withdrawAllMoney() public onlyOwner {... */\n    tag_2:\n      callvalue\n      dup1\n      iszero\n      tag_8\n      jumpi\n      0x00\n      dup1\n      revert\n    tag_8:\n      pop\n      tag_9\n      tag_10\n      jump\t// in\n    tag_9:\n      stop\n        /* \"solidity/FundMeV3.sol\":250:306  mapping(address => uint256) public addressToAmountFunded */\n    tag_3:\n      callvalue\n      dup1\n      iszero\n      tag_11\n      jumpi\n      0x00\n      dup1\n      revert\n    tag_11:\n      pop\n      tag_12\n      0x04\n      dup1\n      calldatasize\n      sub\n      dup2\n      add\n      swap1\n      tag_13\n      swap2\n      swap1\n      tag_14\n      jump\t// in\n    tag_13:\n      tag_15\n      jump\t// in\n    tag_12:\n      mload(0x40)\n      tag_16\n      swap2\n      swap1\n      tag_17\n      jump\t// in\n    tag_16:\n      mload(0x40)\n      dup1\n      swap2\n      sub\n      swap1\n      return\n        /* \"solidity/FundMeV3.sol\":313:333  address public owner */\n    tag_4:\n      callvalue\n      dup1\n      iszero\n      tag_18\n      jumpi\n      0x00\n      dup1\n      revert\n    tag_18:\n      pop\n      tag_19\n      tag_20\n      jump\t// in\n    tag_19:\n      mload(0x40)\n      tag_21\n      swap2\n      swap1\n      tag_22\n      jump\t// in\n    tag_21:\n      mload(0x40)\n      dup1\n      swap2\n      sub\n      swap1\n      return\n        /* \"solidity/FundMeV3.sol\":437:685  function fund() public payable {... */\n    tag_5:\n      tag_23\n      tag_24\n      jump\t// in\n    tag_23:\n      stop\n        /* \"solidity/FundMeV3.sol\":220:244  address[] public funders */\n    tag_6:\n      callvalue\n      dup1\n      iszero\n      tag_25\n      jumpi\n      0x00\n      dup1\n      revert\n    tag_25:\n      pop\n      tag_26\n      0x04\n      dup1\n      calldatasize\n      sub\n      dup2\n      add\n      swap1\n      tag_27\n      swap2\n      swap1\n      tag_28\n      jump\t// in\n    tag_27:\n      tag_29\n      jump\t// in\n    tag_26:\n      mload(0x40)\n      tag_30\n      swap2\n      swap1\n      tag_22\n      jump\t// in\n    tag_30:\n      mload(0x40)\n      dup1\n      swap2\n      sub\n      swap1\n      return\n        /* \"solidity/FundMeV3.sol\":173:214  uint256 public constant minUSD = 5 * 1e18 */\n    tag_7:\n      callvalue\n      dup1\n      iszero\n      tag_31\n      jumpi\n      0x00\n      dup1\n      revert\n    tag_31:\n      pop\n      tag_32\n      tag_33\n      jump\t// in\n    tag_32:\n      mload(0x40)\n      tag_34\n      swap2\n      swap1\n      tag_17\n      jump\t// in\n    tag_34:\n      mload(0x40)\n      dup1\n      swap2\n      sub\n      swap1\n      return\n        /* \"solidity/FundMeV3.sol\":1191:1934  function withdrawAllMoney() public onlyOwner {... */\n    tag_10:\n        /* \"solidity/FundMeV3.sol\":948:953  owner */\n      0x02\n      0x00\n      swap1\n      sload\n      swap1\n      0x0100\n      exp\n      swap1\n      div\n      0xffffffffffffffffffffffffffffffffffffffff\n      and\n        /* \"solidity/FundMeV3.sol\":934:953  msg.sender == owner */\n      0xffffffffffffffffffffffffffffffffffffffff\n      and\n        /* \"solidity/FundMeV3.sol\":934:944  msg.sender */\n      caller\n        /* \"solidity/FundMeV3.sol\":934:953  msg.sender == owner */\n      0xffffffffffffffffffffffffffffffffffffffff\n      and\n      eq\n        /* \"solidity/FundMeV3.sol\":926:979  require(msg.sender == owner, \"owner only authorised\") */\n      tag_36\n      jumpi\n      mload(0x40)\n      0x08c379a000000000000000000000000000000000000000000000000000000000\n      dup2\n      mstore\n      0x04\n      add\n      tag_37\n      swap1\n      tag_38\n      jump\t// in\n    tag_37:\n      mload(0x40)\n      dup1\n      swap2\n      sub\n      swap1\n      revert\n    tag_36:\n        /* \"solidity/FundMeV3.sol\":1268:1273  owner */\n      0x02\n      0x00\n      swap1\n      sload\n      swap1\n      0x0100\n      exp\n      swap1\n      div\n      0xffffffffffffffffffffffffffffffffffffffff\n      and\n        /* \"solidity/FundMeV3.sol\":1254:1273  msg.sender == owner */\n      0xffffffffffffffffffffffffffffffffffffffff\n      and\n        /* \"solidity/FundMeV3.sol\":1254:1264  msg.sender */\n      caller\n        /* \"solidity/FundMeV3.sol\":1254:1273  msg.sender == owner */\n      0xffffffffffffffffffffffffffffffffffffffff\n      and\n      eq\n        /* \"solidity/FundMeV3.sol\":1246:1300  require(msg.sender == owner, \"you are not authorised\") */\n      tag_40\n      jumpi\n      mload(0x40)\n      0x08c379a000000000000000000000000000000000000000000000000000000000\n      dup2\n      mstore\n      0x04\n      add\n      tag_41\n      swap1\n      tag_42\n      jump\t// in\n    tag_41:\n      mload(0x40)\n      dup1\n      swap2\n      sub\n      swap1\n      revert\n    tag_40:\n        /* \"solidity/FundMeV3.sol\":1311:1330  uint256 funderIndex */\n      0x00\n        /* \"solidity/FundMeV3.sol\":1344:1353  uint256 n */\n      dup1\n        /* \"solidity/FundMeV3.sol\":1356:1363  funders */\n      dup1\n        /* \"solidity/FundMeV3.sol\":1356:1370  funders.length */\n      dup1\n      sload\n      swap1\n      pop\n        /* \"solidity/FundMeV3.sol\":1344:1370  uint256 n = funders.length */\n      swap1\n      pop\n        /* \"solidity/FundMeV3.sol\":1386:1395  uint256 i */\n      0x00\n        /* \"solidity/FundMeV3.sol\":1398:1409  funderIndex */\n      dup3\n        /* \"solidity/FundMeV3.sol\":1386:1409  uint256 i = funderIndex */\n      swap1\n      pop\n        /* \"solidity/FundMeV3.sol\":1381:1522  for (uint256 i = funderIndex; i < n; i++) {... */\n    tag_43:\n        /* \"solidity/FundMeV3.sol\":1415:1416  n */\n      dup2\n        /* \"solidity/FundMeV3.sol\":1411:1412  i */\n      dup2\n        /* \"solidity/FundMeV3.sol\":1411:1416  i < n */\n      lt\n        /* \"solidity/FundMeV3.sol\":1381:1522  for (uint256 i = funderIndex; i < n; i++) {... */\n      iszero\n      tag_44\n      jumpi\n        /* \"solidity/FundMeV3.sol\":1437:1451  address funder */\n      0x00\n        /* \"solidity/FundMeV3.sol\":1454:1461  funders */\n      dup1\n        /* \"solidity/FundMeV3.sol\":1462:1463  i */\n      dup3\n        /* \"solidity/FundMeV3.sol\":1454:1464  funders[i] */\n      dup2\n      sload\n      dup2\n      lt\n      tag_46\n      jumpi\n      tag_47\n      tag_48\n      jump\t// in\n    tag_47:\n    tag_46:\n      swap1\n      0x00\n      mstore\n      keccak256(0x00, 0x20)\n      add\n      0x00\n      swap1\n      sload\n      swap1\n      0x0100\n      exp\n      swap1\n      div\n      0xffffffffffffffffffffffffffffffffffffffff\n      and\n        /* \"solidity/FundMeV3.sol\":1437:1464  address funder = funders[i] */\n      swap1\n      pop\n        /* \"solidity/FundMeV3.sol\":1510:1511  0 */\n      0x00\n        /* \"solidity/FundMeV3.sol\":1478:1499  addressToAmountFunded */\n      0x01\n        /* \"solidity/FundMeV3.sol\":1478:1507  addressToAmountFunded[funder] */\n      0x00\n        /* \"solidity/FundMeV3.sol\":1500:1506  funder */\n      dup4\n        /* \"solidity/FundMeV3.sol\":1478:1507  addressToAmountFunded[funder] */\n      0xffffffffffffffffffffffffffffffffffffffff\n      and\n      0xffffffffffffffffffffffffffffffffffffffff\n      and\n      dup2\n      mstore\n      0x20\n      add\n      swap1\n      dup2\n      mstore\n      0x20\n      add\n      0x00\n      keccak256\n        /* \"solidity/FundMeV3.sol\":1478:1511  addressToAmountFunded[funder] = 0 */\n      dup2\n      swap1\n      sstore\n      pop\n        /* \"solidity/FundMeV3.sol\":1423:1522  {... */\n      pop\n        /* \"solidity/FundMeV3.sol\":1418:1421  i++ */\n      dup1\n      dup1\n      0x01\n      add\n      swap2\n      pop\n      pop\n        /* \"solidity/FundMeV3.sol\":1381:1522  for (uint256 i = funderIndex; i < n; i++) {... */\n      jump(tag_43)\n    tag_44:\n      pop\n        /* \"solidity/FundMeV3.sol\":1556:1557  0 */\n      0x00\n        /* \"solidity/FundMeV3.sol\":1542:1558  new address[](0) */\n      0xffffffffffffffff\n      dup2\n      gt\n      iszero\n      tag_50\n      jumpi\n      tag_51\n      tag_52\n      jump\t// in\n    tag_51:\n    tag_50:\n      mload(0x40)\n      swap1\n      dup1\n      dup3\n      mstore\n      dup1\n      0x20\n      mul\n      0x20\n      add\n      dup3\n      add\n      0x40\n      mstore\n      dup1\n      iszero\n      tag_53\n      jumpi\n      dup2\n      0x20\n      add\n      0x20\n      dup3\n      mul\n      dup1\n      calldatasize\n      dup4\n      calldatacopy\n      dup1\n      dup3\n      add\n      swap2\n      pop\n      pop\n      swap1\n      pop\n    tag_53:\n      pop\n        /* \"solidity/FundMeV3.sol\":1532:1539  funders */\n      0x00\n        /* \"solidity/FundMeV3.sol\":1532:1558  funders = new address[](0) */\n      swap1\n      dup1\n      mload\n      swap1\n      0x20\n      add\n      swap1\n      tag_54\n      swap3\n      swap2\n      swap1\n      tag_55\n      jump\t// in\n    tag_54:\n      pop\n        /* \"solidity/FundMeV3.sol\":1577:1587  msg.sender */\n      caller\n        /* \"solidity/FundMeV3.sol\":1569:1597  payable(msg.sender).transfer */\n      0xffffffffffffffffffffffffffffffffffffffff\n      and\n        /* \"solidity/FundMeV3.sol\":1569:1620  payable(msg.sender).transfer(address(this).balance) */\n      0x08fc\n        /* \"solidity/FundMeV3.sol\":1598:1619  address(this).balance */\n      selfbalance\n        /* \"solidity/FundMeV3.sol\":1569:1620  payable(msg.sender).transfer(address(this).balance) */\n      swap1\n      dup2\n      iszero\n      mul\n      swap1\n      mload(0x40)\n      0x00\n      mload(0x40)\n      dup1\n      dup4\n      sub\n      dup2\n      dup6\n      dup9\n      dup9\n      call\n      swap4\n      pop\n      pop\n      pop\n      pop\n      iszero\n      dup1\n      iszero\n      tag_57\n      jumpi\n      returndatasize\n      0x00\n      dup1\n      returndatacopy\n      revert(0x00, returndatasize)\n    tag_57:\n      pop\n        /* \"solidity/FundMeV3.sol\":1631:1647  bool sendSuccess */\n      0x00\n        /* \"solidity/FundMeV3.sol\":1658:1668  msg.sender */\n      caller\n        /* \"solidity/FundMeV3.sol\":1650:1674  payable(msg.sender).send */\n      0xffffffffffffffffffffffffffffffffffffffff\n      and\n        /* \"solidity/FundMeV3.sol\":1650:1697  payable(msg.sender).send(address(this).balance) */\n      0x08fc\n        /* \"solidity/FundMeV3.sol\":1675:1696  address(this).balance */\n      selfbalance\n        /* \"solidity/FundMeV3.sol\":1650:1697  payable(msg.sender).send(address(this).balance) */\n      swap1\n      dup2\n      iszero\n      mul\n      swap1\n      mload(0x40)\n      0x00\n      mload(0x40)\n      dup1\n      dup4\n      sub\n      dup2\n      dup6\n      dup9\n      dup9\n      call\n      swap4\n      pop\n      pop\n      pop\n      pop\n        /* \"solidity/FundMeV3.sol\":1631:1697  bool sendSuccess = payable(msg.sender).send(address(this).balance) */\n      swap1\n      pop\n        /* \"solidity/FundMeV3.sol\":1715:1726  sendSuccess */\n      dup1\n        /* \"solidity/FundMeV3.sol\":1707:1755  require(sendSuccess, \"Send was not successfull\") */\n      tag_59\n      jumpi\n      mload(0x40)\n      0x08c379a000000000000000000000000000000000000000000000000000000000\n      dup2\n      mstore\n      0x04\n      add\n      tag_60\n      swap1\n      tag_61\n      jump\t// in\n    tag_60:\n      mload(0x40)\n      dup1\n      swap2\n      sub\n      swap1\n      revert\n    tag_59:\n        /* \"solidity/FundMeV3.sol\":1767:1783  bool callSuccess */\n      0x00\n        /* \"solidity/FundMeV3.sol\":1797:1807  msg.sender */\n      caller\n        /* \"solidity/FundMeV3.sol\":1789:1813  payable(msg.sender).call */\n      0xffffffffffffffffffffffffffffffffffffffff\n      and\n        /* \"solidity/FundMeV3.sol\":1834:1855  address(this).balance */\n      selfbalance\n        /* \"solidity/FundMeV3.sol\":1789:1869  payable(msg.sender).call{... */\n      mload(0x40)\n      tag_62\n      swap1\n      tag_63\n      jump\t// in\n    tag_62:\n      0x00\n      mload(0x40)\n      dup1\n      dup4\n      sub\n      dup2\n      dup6\n      dup8\n      gas\n      call\n      swap3\n      pop\n      pop\n      pop\n      returndatasize\n      dup1\n      0x00\n      dup2\n      eq\n      tag_66\n      jumpi\n      mload(0x40)\n      swap2\n      pop\n      and(add(returndatasize, 0x3f), not(0x1f))\n      dup3\n      add\n      0x40\n      mstore\n      returndatasize\n      dup3\n      mstore\n      returndatasize\n      0x00\n      0x20\n      dup5\n      add\n      returndatacopy\n      jump(tag_65)\n    tag_66:\n      0x60\n      swap2\n      pop\n    tag_65:\n      pop\n        /* \"solidity/FundMeV3.sol\":1766:1869  (bool callSuccess, ) = payable(msg.sender).call{... */\n      pop\n      swap1\n      pop\n        /* \"solidity/FundMeV3.sol\":1887:1898  callSuccess */\n      dup1\n        /* \"solidity/FundMeV3.sol\":1879:1927  require(callSuccess, \"Call was not successfull\") */\n      tag_67\n      jumpi\n      mload(0x40)\n      0x08c379a000000000000000000000000000000000000000000000000000000000\n      dup2\n      mstore\n      0x04\n      add\n      tag_68\n      swap1\n      tag_69\n      jump\t// in\n    tag_68:\n      mload(0x40)\n      dup1\n      swap2\n      sub\n      swap1\n      revert\n    tag_67:\n        /* \"solidity/FundMeV3.sol\":1236:1934  {... */\n      pop\n      pop\n      pop\n      pop\n        /* \"solidity/FundMeV3.sol\":1191:1934  function withdrawAllMoney() public onlyOwner {... */\n      jump\t// out\n        /* \"solidity/FundMeV3.sol\":250:306  mapping(address => uint256) public addressToAmountFunded */\n    tag_15:\n      mstore(0x20, 0x01)\n      dup1\n      0x00\n      mstore\n      keccak256(0x00, 0x40)\n      0x00\n      swap2\n      pop\n      swap1\n      pop\n      sload\n      dup2\n      jump\t// out\n        /* \"solidity/FundMeV3.sol\":313:333  address public owner */\n    tag_20:\n      0x02\n      0x00\n      swap1\n      sload\n      swap1\n      0x0100\n      exp\n      swap1\n      div\n      0xffffffffffffffffffffffffffffffffffffffff\n      and\n      dup2\n      jump\t// out\n        /* \"solidity/FundMeV3.sol\":437:685  function fund() public payable {... */\n    tag_24:\n        /* \"solidity/FundMeV3.sol\":206:214  5 * 1e18 */\n      0x4563918244f40000\n        /* \"solidity/FundMeV3.sol\":499:530  (msg.value).getConversionRate() */\n      tag_71\n        /* \"solidity/FundMeV3.sol\":500:509  msg.value */\n      callvalue\n        /* \"solidity/FundMeV3.sol\":499:528  (msg.value).getConversionRate */\n      tag_72\n        /* \"solidity/FundMeV3.sol\":499:530  (msg.value).getConversionRate() */\n      jump\t// in\n    tag_71:\n        /* \"solidity/FundMeV3.sol\":499:540  (msg.value).getConversionRate() >= minUSD */\n      lt\n      iszero\n        /* \"solidity/FundMeV3.sol\":478:587  require(... */\n      tag_73\n      jumpi\n      mload(0x40)\n      0x08c379a000000000000000000000000000000000000000000000000000000000\n      dup2\n      mstore\n      0x04\n      add\n      tag_74\n      swap1\n      tag_75\n      jump\t// in\n    tag_74:\n      mload(0x40)\n      dup1\n      swap2\n      sub\n      swap1\n      revert\n    tag_73:\n        /* \"solidity/FundMeV3.sol\":598:605  funders */\n      0x00\n        /* \"solidity/FundMeV3.sol\":611:621  msg.sender */\n      caller\n        /* \"solidity/FundMeV3.sol\":598:622  funders.push(msg.sender) */\n      swap1\n      dup1\n      0x01\n      dup2\n      sload\n      add\n      dup1\n      dup3\n      sstore\n      dup1\n      swap2\n      pop\n      pop\n      0x01\n      swap1\n      sub\n      swap1\n      0x00\n      mstore\n      keccak256(0x00, 0x20)\n      add\n      0x00\n      swap1\n      swap2\n      swap1\n      swap2\n      swap1\n      swap2\n      0x0100\n      exp\n      dup2\n      sload\n      dup2\n      0xffffffffffffffffffffffffffffffffffffffff\n      mul\n      not\n      and\n      swap1\n      dup4\n      0xffffffffffffffffffffffffffffffffffffffff\n      and\n      mul\n      or\n      swap1\n      sstore\n      pop\n        /* \"solidity/FundMeV3.sol\":669:678  msg.value */\n      callvalue\n        /* \"solidity/FundMeV3.sol\":632:653  addressToAmountFunded */\n      0x01\n        /* \"solidity/FundMeV3.sol\":632:665  addressToAmountFunded[msg.sender] */\n      0x00\n        /* \"solidity/FundMeV3.sol\":654:664  msg.sender */\n      caller\n        /* \"solidity/FundMeV3.sol\":632:665  addressToAmountFunded[msg.sender] */\n      0xffffffffffffffffffffffffffffffffffffffff\n      and\n      0xffffffffffffffffffffffffffffffffffffffff\n      and\n      dup2\n      mstore\n      0x20\n      add\n      swap1\n      dup2\n      mstore\n      0x20\n      add\n      0x00\n      keccak256\n      0x00\n        /* \"solidity/FundMeV3.sol\":632:678  addressToAmountFunded[msg.sender] += msg.value */\n      dup3\n      dup3\n      sload\n      tag_77\n      swap2\n      swap1\n      tag_78\n      jump\t// in\n    tag_77:\n      swap3\n      pop\n      pop\n      dup2\n      swap1\n      sstore\n      pop\n        /* \"solidity/FundMeV3.sol\":437:685  function fund() public payable {... */\n      jump\t// out\n        /* \"solidity/FundMeV3.sol\":220:244  address[] public funders */\n    tag_29:\n      0x00\n      dup2\n      dup2\n      sload\n      dup2\n      lt\n      tag_79\n      jumpi\n      0x00\n      dup1\n      revert\n    tag_79:\n      swap1\n      0x00\n      mstore\n      keccak256(0x00, 0x20)\n      add\n      0x00\n      swap2\n      pop\n      sload\n      swap1\n      0x0100\n      exp\n      swap1\n      div\n      0xffffffffffffffffffffffffffffffffffffffff\n      and\n      dup2\n      jump\t// out\n        /* \"solidity/FundMeV3.sol\":173:214  uint256 public constant minUSD = 5 * 1e18 */\n    tag_33:\n        /* \"solidity/FundMeV3.sol\":206:214  5 * 1e18 */\n      0x4563918244f40000\n        /* \"solidity/FundMeV3.sol\":173:214  uint256 public constant minUSD = 5 * 1e18 */\n      dup2\n      jump\t// out\n        /* \"solidity/PriceConverter.sol\":542:789  function getConversionRate(uint256 ethAmount)... */\n    tag_72:\n        /* \"solidity/PriceConverter.sol\":635:642  uint256 */\n      0x00\n        /* \"solidity/PriceConverter.sol\":658:674  uint256 ethPrice */\n      dup1\n        /* \"solidity/PriceConverter.sol\":677:687  getPrice() */\n      tag_82\n        /* \"solidity/PriceConverter.sol\":677:685  getPrice */\n      tag_83\n        /* \"solidity/PriceConverter.sol\":677:687  getPrice() */\n      jump\t// in\n    tag_82:\n        /* \"solidity/PriceConverter.sol\":658:687  uint256 ethPrice = getPrice() */\n      swap1\n      pop\n        /* \"solidity/PriceConverter.sol\":697:719  uint256 ethAmountInUSD */\n      0x00\n        /* \"solidity/PriceConverter.sol\":747:751  1e18 */\n      0x0de0b6b3a7640000\n        /* \"solidity/PriceConverter.sol\":734:743  ethAmount */\n      dup5\n        /* \"solidity/PriceConverter.sol\":723:731  ethPrice */\n      dup4\n        /* \"solidity/PriceConverter.sol\":723:743  ethPrice * ethAmount */\n      tag_84\n      swap2\n      swap1\n      tag_85\n      jump\t// in\n    tag_84:\n        /* \"solidity/PriceConverter.sol\":722:751  (ethPrice * ethAmount) / 1e18 */\n      tag_86\n      swap2\n      swap1\n      tag_87\n      jump\t// in\n    tag_86:\n        /* \"solidity/PriceConverter.sol\":697:751  uint256 ethAmountInUSD = (ethPrice * ethAmount) / 1e18 */\n      swap1\n      pop\n        /* \"solidity/PriceConverter.sol\":768:782  ethAmountInUSD */\n      dup1\n        /* \"solidity/PriceConverter.sol\":761:782  return ethAmountInUSD */\n      swap3\n      pop\n      pop\n      pop\n        /* \"solidity/PriceConverter.sol\":542:789  function getConversionRate(uint256 ethAmount)... */\n      swap2\n      swap1\n      pop\n      jump\t// out\n        /* \"solidity/PriceConverter.sol\":166:536  function getPrice() internal view returns (uint256) {... */\n    tag_83:\n        /* \"solidity/PriceConverter.sol\":209:216  uint256 */\n      0x00\n        /* \"solidity/PriceConverter.sol\":228:259  AggregatorV3Interface priceFeed */\n      dup1\n        /* \"solidity/PriceConverter.sol\":297:339  0x694AA1769357215DE4FAC081bf1f309aDC325306 */\n      0x694aa1769357215de4fac081bf1f309adc325306\n        /* \"solidity/PriceConverter.sol\":228:349  AggregatorV3Interface priceFeed = AggregatorV3Interface(... */\n      swap1\n      pop\n        /* \"solidity/PriceConverter.sol\":362:375  int256 answer */\n      0x00\n        /* \"solidity/PriceConverter.sol\":385:394  priceFeed */\n      dup2\n        /* \"solidity/PriceConverter.sol\":385:410  priceFeed.latestRoundData */\n      0xffffffffffffffffffffffffffffffffffffffff\n      and\n      0xfeaf968c\n        /* \"solidity/PriceConverter.sol\":385:412  priceFeed.latestRoundData() */\n      mload(0x40)\n      dup2\n      0xffffffff\n      and\n      0xe0\n      shl\n      dup2\n      mstore\n      0x04\n      add\n      0xa0\n      mload(0x40)\n      dup1\n      dup4\n      sub\n      dup2\n      dup7\n      gas\n      staticcall\n      iszero\n      dup1\n      iszero\n      tag_90\n      jumpi\n      returndatasize\n      0x00\n      dup1\n      returndatacopy\n      revert(0x00, returndatasize)\n    tag_90:\n      pop\n      pop\n      pop\n      pop\n      mload(0x40)\n      returndatasize\n      not(0x1f)\n      0x1f\n      dup3\n      add\n      and\n      dup3\n      add\n      dup1\n      0x40\n      mstore\n      pop\n      dup2\n      add\n      swap1\n      tag_91\n      swap2\n      swap1\n      tag_92\n      jump\t// in\n    tag_91:\n        /* \"solidity/PriceConverter.sol\":359:412  (, int256 answer, , , ) = priceFeed.latestRoundData() */\n      pop\n      pop\n      pop\n      swap2\n      pop\n      pop\n        /* \"solidity/PriceConverter.sol\":463:479  uint256 ethPrice */\n      0x00\n        /* \"solidity/PriceConverter.sol\":499:503  1e10 */\n      0x02540be400\n        /* \"solidity/PriceConverter.sol\":490:496  answer */\n      dup3\n        /* \"solidity/PriceConverter.sol\":490:503  answer * 1e10 */\n      tag_93\n      swap2\n      swap1\n      tag_94\n      jump\t// in\n    tag_93:\n        /* \"solidity/PriceConverter.sol\":463:504  uint256 ethPrice = uint256(answer * 1e10) */\n      swap1\n      pop\n        /* \"solidity/PriceConverter.sol\":521:529  ethPrice */\n      dup1\n        /* \"solidity/PriceConverter.sol\":514:529  return ethPrice */\n      swap4\n      pop\n      pop\n      pop\n      pop\n        /* \"solidity/PriceConverter.sol\":166:536  function getPrice() internal view returns (uint256) {... */\n      swap1\n      jump\t// out\n    tag_55:\n      dup3\n      dup1\n      sload\n      dup3\n      dup3\n      sstore\n      swap1\n      0x00\n      mstore\n      keccak256(0x00, 0x20)\n      swap1\n      dup2\n      add\n      swap3\n      dup3\n      iszero\n      tag_95\n      jumpi\n      swap2\n      0x20\n      mul\n      dup3\n      add\n    tag_96:\n      dup3\n      dup2\n      gt\n      iszero\n      tag_97\n      jumpi\n      dup3\n      mload\n      dup3\n      exp(0x0100, 0x00)\n      dup2\n      sload\n      dup2\n      0xffffffffffffffffffffffffffffffffffffffff\n      mul\n      not\n      and\n      swap1\n      dup4\n      0xffffffffffffffffffffffffffffffffffffffff\n      and\n      mul\n      or\n      swap1\n      sstore\n      pop\n      swap2\n      0x20\n      add\n      swap2\n      swap1\n      0x01\n      add\n      swap1\n      jump(tag_96)\n    tag_97:\n    tag_95:\n      pop\n      swap1\n      pop\n      tag_98\n      swap2\n      swap1\n      tag_99\n      jump\t// in\n    tag_98:\n      pop\n      swap1\n      jump\t// out\n    tag_99:\n    tag_100:\n      dup1\n      dup3\n      gt\n      iszero\n      tag_101\n      jumpi\n      0x00\n      dup2\n      0x00\n      swap1\n      sstore\n      pop\n      0x01\n      add\n      jump(tag_100)\n    tag_101:\n      pop\n      swap1\n      jump\t// out\n        /* \"#utility.yul\":88:205   */\n    tag_103:\n        /* \"#utility.yul\":197:198   */\n      0x00\n        /* \"#utility.yul\":194:195   */\n      dup1\n        /* \"#utility.yul\":187:199   */\n      revert\n        /* \"#utility.yul\":334:460   */\n    tag_105:\n        /* \"#utility.yul\":371:378   */\n      0x00\n        /* \"#utility.yul\":411:453   */\n      0xffffffffffffffffffffffffffffffffffffffff\n        /* \"#utility.yul\":404:409   */\n      dup3\n        /* \"#utility.yul\":400:454   */\n      and\n        /* \"#utility.yul\":389:454   */\n      swap1\n      pop\n        /* \"#utility.yul\":334:460   */\n      swap2\n      swap1\n      pop\n      jump\t// out\n        /* \"#utility.yul\":466:562   */\n    tag_106:\n        /* \"#utility.yul\":503:510   */\n      0x00\n        /* \"#utility.yul\":532:556   */\n      tag_143\n        /* \"#utility.yul\":550:555   */\n      dup3\n        /* \"#utility.yul\":532:556   */\n      tag_105\n      jump\t// in\n    tag_143:\n        /* \"#utility.yul\":521:556   */\n      swap1\n      pop\n        /* \"#utility.yul\":466:562   */\n      swap2\n      swap1\n      pop\n      jump\t// out\n        /* \"#utility.yul\":568:690   */\n    tag_107:\n        /* \"#utility.yul\":641:665   */\n      tag_145\n        /* \"#utility.yul\":659:664   */\n      dup2\n        /* \"#utility.yul\":641:665   */\n      tag_106\n      jump\t// in\n    tag_145:\n        /* \"#utility.yul\":634:639   */\n      dup2\n        /* \"#utility.yul\":631:666   */\n      eq\n        /* \"#utility.yul\":621:684   */\n      tag_146\n      jumpi\n        /* \"#utility.yul\":680:681   */\n      0x00\n        /* \"#utility.yul\":677:678   */\n      dup1\n        /* \"#utility.yul\":670:682   */\n      revert\n        /* \"#utility.yul\":621:684   */\n    tag_146:\n        /* \"#utility.yul\":568:690   */\n      pop\n      jump\t// out\n        /* \"#utility.yul\":696:835   */\n    tag_108:\n        /* \"#utility.yul\":742:747   */\n      0x00\n        /* \"#utility.yul\":780:786   */\n      dup2\n        /* \"#utility.yul\":767:787   */\n      calldataload\n        /* \"#utility.yul\":758:787   */\n      swap1\n      pop\n        /* \"#utility.yul\":796:829   */\n      tag_148\n        /* \"#utility.yul\":823:828   */\n      dup2\n        /* \"#utility.yul\":796:829   */\n      tag_107\n      jump\t// in\n    tag_148:\n        /* \"#utility.yul\":696:835   */\n      swap3\n      swap2\n      pop\n      pop\n      jump\t// out\n        /* \"#utility.yul\":841:1170   */\n    tag_14:\n        /* \"#utility.yul\":900:906   */\n      0x00\n        /* \"#utility.yul\":949:951   */\n      0x20\n        /* \"#utility.yul\":937:946   */\n      dup3\n        /* \"#utility.yul\":928:935   */\n      dup5\n        /* \"#utility.yul\":924:947   */\n      sub\n        /* \"#utility.yul\":920:952   */\n      slt\n        /* \"#utility.yul\":917:1036   */\n      iszero\n      tag_150\n      jumpi\n        /* \"#utility.yul\":955:1034   */\n      tag_151\n      tag_103\n      jump\t// in\n    tag_151:\n        /* \"#utility.yul\":917:1036   */\n    tag_150:\n        /* \"#utility.yul\":1075:1076   */\n      0x00\n        /* \"#utility.yul\":1100:1153   */\n      tag_152\n        /* \"#utility.yul\":1145:1152   */\n      dup5\n        /* \"#utility.yul\":1136:1142   */\n      dup3\n        /* \"#utility.yul\":1125:1134   */\n      dup6\n        /* \"#utility.yul\":1121:1143   */\n      add\n        /* \"#utility.yul\":1100:1153   */\n      tag_108\n      jump\t// in\n    tag_152:\n        /* \"#utility.yul\":1090:1153   */\n      swap2\n      pop\n        /* \"#utility.yul\":1046:1163   */\n      pop\n        /* \"#utility.yul\":841:1170   */\n      swap3\n      swap2\n      pop\n      pop\n      jump\t// out\n        /* \"#utility.yul\":1176:1253   */\n    tag_109:\n        /* \"#utility.yul\":1213:1220   */\n      0x00\n        /* \"#utility.yul\":1242:1247   */\n      dup2\n        /* \"#utility.yul\":1231:1247   */\n      swap1\n      pop\n        /* \"#utility.yul\":1176:1253   */\n      swap2\n      swap1\n      pop\n      jump\t// out\n        /* \"#utility.yul\":1259:1377   */\n    tag_110:\n        /* \"#utility.yul\":1346:1370   */\n      tag_155\n        /* \"#utility.yul\":1364:1369   */\n      dup2\n        /* \"#utility.yul\":1346:1370   */\n      tag_109\n      jump\t// in\n    tag_155:\n        /* \"#utility.yul\":1341:1344   */\n      dup3\n        /* \"#utility.yul\":1334:1371   */\n      mstore\n        /* \"#utility.yul\":1259:1377   */\n      pop\n      pop\n      jump\t// out\n        /* \"#utility.yul\":1383:1605   */\n    tag_17:\n        /* \"#utility.yul\":1476:1480   */\n      0x00\n        /* \"#utility.yul\":1514:1516   */\n      0x20\n        /* \"#utility.yul\":1503:1512   */\n      dup3\n        /* \"#utility.yul\":1499:1517   */\n      add\n        /* \"#utility.yul\":1491:1517   */\n      swap1\n      pop\n        /* \"#utility.yul\":1527:1598   */\n      tag_157\n        /* \"#utility.yul\":1595:1596   */\n      0x00\n        /* \"#utility.yul\":1584:1593   */\n      dup4\n        /* \"#utility.yul\":1580:1597   */\n      add\n        /* \"#utility.yul\":1571:1577   */\n      dup5\n        /* \"#utility.yul\":1527:1598   */\n      tag_110\n      jump\t// in\n    tag_157:\n        /* \"#utility.yul\":1383:1605   */\n      swap3\n      swap2\n      pop\n      pop\n      jump\t// out\n        /* \"#utility.yul\":1611:1729   */\n    tag_111:\n        /* \"#utility.yul\":1698:1722   */\n      tag_159\n        /* \"#utility.yul\":1716:1721   */\n      dup2\n        /* \"#utility.yul\":1698:1722   */\n      tag_106\n      jump\t// in\n    tag_159:\n        /* \"#utility.yul\":1693:1696   */\n      dup3\n        /* \"#utility.yul\":1686:1723   */\n      mstore\n        /* \"#utility.yul\":1611:1729   */\n      pop\n      pop\n      jump\t// out\n        /* \"#utility.yul\":1735:1957   */\n    tag_22:\n        /* \"#utility.yul\":1828:1832   */\n      0x00\n        /* \"#utility.yul\":1866:1868   */\n      0x20\n        /* \"#utility.yul\":1855:1864   */\n      dup3\n        /* \"#utility.yul\":1851:1869   */\n      add\n        /* \"#utility.yul\":1843:1869   */\n      swap1\n      pop\n        /* \"#utility.yul\":1879:1950   */\n      tag_161\n        /* \"#utility.yul\":1947:1948   */\n      0x00\n        /* \"#utility.yul\":1936:1945   */\n      dup4\n        /* \"#utility.yul\":1932:1949   */\n      add\n        /* \"#utility.yul\":1923:1929   */\n      dup5\n        /* \"#utility.yul\":1879:1950   */\n      tag_111\n      jump\t// in\n    tag_161:\n        /* \"#utility.yul\":1735:1957   */\n      swap3\n      swap2\n      pop\n      pop\n      jump\t// out\n        /* \"#utility.yul\":1963:2085   */\n    tag_112:\n        /* \"#utility.yul\":2036:2060   */\n      tag_163\n        /* \"#utility.yul\":2054:2059   */\n      dup2\n        /* \"#utility.yul\":2036:2060   */\n      tag_109\n      jump\t// in\n    tag_163:\n        /* \"#utility.yul\":2029:2034   */\n      dup2\n        /* \"#utility.yul\":2026:2061   */\n      eq\n        /* \"#utility.yul\":2016:2079   */\n      tag_164\n      jumpi\n        /* \"#utility.yul\":2075:2076   */\n      0x00\n        /* \"#utility.yul\":2072:2073   */\n      dup1\n        /* \"#utility.yul\":2065:2077   */\n      revert\n        /* \"#utility.yul\":2016:2079   */\n    tag_164:\n        /* \"#utility.yul\":1963:2085   */\n      pop\n      jump\t// out\n        /* \"#utility.yul\":2091:2230   */\n    tag_113:\n        /* \"#utility.yul\":2137:2142   */\n      0x00\n        /* \"#utility.yul\":2175:2181   */\n      dup2\n        /* \"#utility.yul\":2162:2182   */\n      calldataload\n        /* \"#utility.yul\":2153:2182   */\n      swap1\n      pop\n        /* \"#utility.yul\":2191:2224   */\n      tag_166\n        /* \"#utility.yul\":2218:2223   */\n      dup2\n        /* \"#utility.yul\":2191:2224   */\n      tag_112\n      jump\t// in\n    tag_166:\n        /* \"#utility.yul\":2091:2230   */\n      swap3\n      swap2\n      pop\n      pop\n      jump\t// out\n        /* \"#utility.yul\":2236:2565   */\n    tag_28:\n        /* \"#utility.yul\":2295:2301   */\n      0x00\n        /* \"#utility.yul\":2344:2346   */\n      0x20\n        /* \"#utility.yul\":2332:2341   */\n      dup3\n        /* \"#utility.yul\":2323:2330   */\n      dup5\n        /* \"#utility.yul\":2319:2342   */\n      sub\n        /* \"#utility.yul\":2315:2347   */\n      slt\n        /* \"#utility.yul\":2312:2431   */\n      iszero\n      tag_168\n      jumpi\n        /* \"#utility.yul\":2350:2429   */\n      tag_169\n      tag_103\n      jump\t// in\n    tag_169:\n        /* \"#utility.yul\":2312:2431   */\n    tag_168:\n        /* \"#utility.yul\":2470:2471   */\n      0x00\n        /* \"#utility.yul\":2495:2548   */\n      tag_170\n        /* \"#utility.yul\":2540:2547   */\n      dup5\n        /* \"#utility.yul\":2531:2537   */\n      dup3\n        /* \"#utility.yul\":2520:2529   */\n      dup6\n        /* \"#utility.yul\":2516:2538   */\n      add\n        /* \"#utility.yul\":2495:2548   */\n      tag_113\n      jump\t// in\n    tag_170:\n        /* \"#utility.yul\":2485:2548   */\n      swap2\n      pop\n        /* \"#utility.yul\":2441:2558   */\n      pop\n        /* \"#utility.yul\":2236:2565   */\n      swap3\n      swap2\n      pop\n      pop\n      jump\t// out\n        /* \"#utility.yul\":2571:2740   */\n    tag_114:\n        /* \"#utility.yul\":2655:2666   */\n      0x00\n        /* \"#utility.yul\":2689:2695   */\n      dup3\n        /* \"#utility.yul\":2684:2687   */\n      dup3\n        /* \"#utility.yul\":2677:2696   */\n      mstore\n        /* \"#utility.yul\":2729:2733   */\n      0x20\n        /* \"#utility.yul\":2724:2727   */\n      dup3\n        /* \"#utility.yul\":2720:2734   */\n      add\n        /* \"#utility.yul\":2705:2734   */\n      swap1\n      pop\n        /* \"#utility.yul\":2571:2740   */\n      swap3\n      swap2\n      pop\n      pop\n      jump\t// out\n        /* \"#utility.yul\":2746:2917   */\n    tag_115:\n        /* \"#utility.yul\":2886:2909   */\n      0x6f776e6572206f6e6c7920617574686f72697365640000000000000000000000\n        /* \"#utility.yul\":2882:2883   */\n      0x00\n        /* \"#utility.yul\":2874:2880   */\n      dup3\n        /* \"#utility.yul\":2870:2884   */\n      add\n        /* \"#utility.yul\":2863:2910   */\n      mstore\n        /* \"#utility.yul\":2746:2917   */\n      pop\n      jump\t// out\n        /* \"#utility.yul\":2923:3289   */\n    tag_116:\n        /* \"#utility.yul\":3065:3068   */\n      0x00\n        /* \"#utility.yul\":3086:3153   */\n      tag_174\n        /* \"#utility.yul\":3150:3152   */\n      0x15\n        /* \"#utility.yul\":3145:3148   */\n      dup4\n        /* \"#utility.yul\":3086:3153   */\n      tag_114\n      jump\t// in\n    tag_174:\n        /* \"#utility.yul\":3079:3153   */\n      swap2\n      pop\n        /* \"#utility.yul\":3162:3255   */\n      tag_175\n        /* \"#utility.yul\":3251:3254   */\n      dup3\n        /* \"#utility.yul\":3162:3255   */\n      tag_115\n      jump\t// in\n    tag_175:\n        /* \"#utility.yul\":3280:3282   */\n      0x20\n        /* \"#utility.yul\":3275:3278   */\n      dup3\n        /* \"#utility.yul\":3271:3283   */\n      add\n        /* \"#utility.yul\":3264:3283   */\n      swap1\n      pop\n        /* \"#utility.yul\":2923:3289   */\n      swap2\n      swap1\n      pop\n      jump\t// out\n        /* \"#utility.yul\":3295:3714   */\n    tag_38:\n        /* \"#utility.yul\":3461:3465   */\n      0x00\n        /* \"#utility.yul\":3499:3501   */\n      0x20\n        /* \"#utility.yul\":3488:3497   */\n      dup3\n        /* \"#utility.yul\":3484:3502   */\n      add\n        /* \"#utility.yul\":3476:3502   */\n      swap1\n      pop\n        /* \"#utility.yul\":3548:3557   */\n      dup2\n        /* \"#utility.yul\":3542:3546   */\n      dup2\n        /* \"#utility.yul\":3538:3558   */\n      sub\n        /* \"#utility.yul\":3534:3535   */\n      0x00\n        /* \"#utility.yul\":3523:3532   */\n      dup4\n        /* \"#utility.yul\":3519:3536   */\n      add\n        /* \"#utility.yul\":3512:3559   */\n      mstore\n        /* \"#utility.yul\":3576:3707   */\n      tag_177\n        /* \"#utility.yul\":3702:3706   */\n      dup2\n        /* \"#utility.yul\":3576:3707   */\n      tag_116\n      jump\t// in\n    tag_177:\n        /* \"#utility.yul\":3568:3707   */\n      swap1\n      pop\n        /* \"#utility.yul\":3295:3714   */\n      swap2\n      swap1\n      pop\n      jump\t// out\n        /* \"#utility.yul\":3720:3892   */\n    tag_117:\n        /* \"#utility.yul\":3860:3884   */\n      0x796f7520617265206e6f7420617574686f726973656400000000000000000000\n        /* \"#utility.yul\":3856:3857   */\n      0x00\n        /* \"#utility.yul\":3848:3854   */\n      dup3\n        /* \"#utility.yul\":3844:3858   */\n      add\n        /* \"#utility.yul\":3837:3885   */\n      mstore\n        /* \"#utility.yul\":3720:3892   */\n      pop\n      jump\t// out\n        /* \"#utility.yul\":3898:4264   */\n    tag_118:\n        /* \"#utility.yul\":4040:4043   */\n      0x00\n        /* \"#utility.yul\":4061:4128   */\n      tag_180\n        /* \"#utility.yul\":4125:4127   */\n      0x16\n        /* \"#utility.yul\":4120:4123   */\n      dup4\n        /* \"#utility.yul\":4061:4128   */\n      tag_114\n      jump\t// in\n    tag_180:\n        /* \"#utility.yul\":4054:4128   */\n      swap2\n      pop\n        /* \"#utility.yul\":4137:4230   */\n      tag_181\n        /* \"#utility.yul\":4226:4229   */\n      dup3\n        /* \"#utility.yul\":4137:4230   */\n      tag_117\n      jump\t// in\n    tag_181:\n        /* \"#utility.yul\":4255:4257   */\n      0x20\n        /* \"#utility.yul\":4250:4253   */\n      dup3\n        /* \"#utility.yul\":4246:4258   */\n      add\n        /* \"#utility.yul\":4239:4258   */\n      swap1\n      pop\n        /* \"#utility.yul\":3898:4264   */\n      swap2\n      swap1\n      pop\n      jump\t// out\n        /* \"#utility.yul\":4270:4689   */\n    tag_42:\n        /* \"#utility.yul\":4436:4440   */\n      0x00\n        /* \"#utility.yul\":4474:4476   */\n      0x20\n        /* \"#utility.yul\":4463:4472   */\n      dup3\n        /* \"#utility.yul\":4459:4477   */\n      add\n        /* \"#utility.yul\":4451:4477   */\n      swap1\n      pop\n        /* \"#utility.yul\":4523:4532   */\n      dup2\n        /* \"#utility.yul\":4517:4521   */\n      dup2\n        /* \"#utility.yul\":4513:4533   */\n      sub\n        /* \"#utility.yul\":4509:4510   */\n      0x00\n        /* \"#utility.yul\":4498:4507   */\n      dup4\n        /* \"#utility.yul\":4494:4511   */\n      add\n        /* \"#utility.yul\":4487:4534   */\n      mstore\n        /* \"#utility.yul\":4551:4682   */\n      tag_183\n        /* \"#utility.yul\":4677:4681   */\n      dup2\n        /* \"#utility.yul\":4551:4682   */\n      tag_118\n      jump\t// in\n    tag_183:\n        /* \"#utility.yul\":4543:4682   */\n      swap1\n      pop\n        /* \"#utility.yul\":4270:4689   */\n      swap2\n      swap1\n      pop\n      jump\t// out\n        /* \"#utility.yul\":4695:4875   */\n    tag_48:\n        /* \"#utility.yul\":4743:4820   */\n      0x4e487b7100000000000000000000000000000000000000000000000000000000\n        /* \"#utility.yul\":4740:4741   */\n      0x00\n        /* \"#utility.yul\":4733:4821   */\n      mstore\n        /* \"#utility.yul\":4840:4844   */\n      0x32\n        /* \"#utility.yul\":4837:4838   */\n      0x04\n        /* \"#utility.yul\":4830:4845   */\n      mstore\n        /* \"#utility.yul\":4864:4868   */\n      0x24\n        /* \"#utility.yul\":4861:4862   */\n      0x00\n        /* \"#utility.yul\":4854:4869   */\n      revert\n        /* \"#utility.yul\":4881:5061   */\n    tag_52:\n        /* \"#utility.yul\":4929:5006   */\n      0x4e487b7100000000000000000000000000000000000000000000000000000000\n        /* \"#utility.yul\":4926:4927   */\n      0x00\n        /* \"#utility.yul\":4919:5007   */\n      mstore\n        /* \"#utility.yul\":5026:5030   */\n      0x41\n        /* \"#utility.yul\":5023:5024   */\n      0x04\n        /* \"#utility.yul\":5016:5031   */\n      mstore\n        /* \"#utility.yul\":5050:5054   */\n      0x24\n        /* \"#utility.yul\":5047:5048   */\n      0x00\n        /* \"#utility.yul\":5040:5055   */\n      revert\n        /* \"#utility.yul\":5067:5241   */\n    tag_119:\n        /* \"#utility.yul\":5207:5233   */\n      0x53656e6420776173206e6f74207375636365737366756c6c0000000000000000\n        /* \"#utility.yul\":5203:5204   */\n      0x00\n        /* \"#utility.yul\":5195:5201   */\n      dup3\n        /* \"#utility.yul\":5191:5205   */\n      add\n        /* \"#utility.yul\":5184:5234   */\n      mstore\n        /* \"#utility.yul\":5067:5241   */\n      pop\n      jump\t// out\n        /* \"#utility.yul\":5247:5613   */\n    tag_120:\n        /* \"#utility.yul\":5389:5392   */\n      0x00\n        /* \"#utility.yul\":5410:5477   */\n      tag_188\n        /* \"#utility.yul\":5474:5476   */\n      0x18\n        /* \"#utility.yul\":5469:5472   */\n      dup4\n        /* \"#utility.yul\":5410:5477   */\n      tag_114\n      jump\t// in\n    tag_188:\n        /* \"#utility.yul\":5403:5477   */\n      swap2\n      pop\n        /* \"#utility.yul\":5486:5579   */\n      tag_189\n        /* \"#utility.yul\":5575:5578   */\n      dup3\n        /* \"#utility.yul\":5486:5579   */\n      tag_119\n      jump\t// in\n    tag_189:\n        /* \"#utility.yul\":5604:5606   */\n      0x20\n        /* \"#utility.yul\":5599:5602   */\n      dup3\n        /* \"#utility.yul\":5595:5607   */\n      add\n        /* \"#utility.yul\":5588:5607   */\n      swap1\n      pop\n        /* \"#utility.yul\":5247:5613   */\n      swap2\n      swap1\n      pop\n      jump\t// out\n        /* \"#utility.yul\":5619:6038   */\n    tag_61:\n        /* \"#utility.yul\":5785:5789   */\n      0x00\n        /* \"#utility.yul\":5823:5825   */\n      0x20\n        /* \"#utility.yul\":5812:5821   */\n      dup3\n        /* \"#utility.yul\":5808:5826   */\n      add\n        /* \"#utility.yul\":5800:5826   */\n      swap1\n      pop\n        /* \"#utility.yul\":5872:5881   */\n      dup2\n        /* \"#utility.yul\":5866:5870   */\n      dup2\n        /* \"#utility.yul\":5862:5882   */\n      sub\n        /* \"#utility.yul\":5858:5859   */\n      0x00\n        /* \"#utility.yul\":5847:5856   */\n      dup4\n        /* \"#utility.yul\":5843:5860   */\n      add\n        /* \"#utility.yul\":5836:5883   */\n      mstore\n        /* \"#utility.yul\":5900:6031   */\n      tag_191\n        /* \"#utility.yul\":6026:6030   */\n      dup2\n        /* \"#utility.yul\":5900:6031   */\n      tag_120\n      jump\t// in\n    tag_191:\n        /* \"#utility.yul\":5892:6031   */\n      swap1\n      pop\n        /* \"#utility.yul\":5619:6038   */\n      swap2\n      swap1\n      pop\n      jump\t// out\n        /* \"#utility.yul\":6044:6191   */\n    tag_121:\n        /* \"#utility.yul\":6145:6156   */\n      0x00\n        /* \"#utility.yul\":6182:6185   */\n      dup2\n        /* \"#utility.yul\":6167:6185   */\n      swap1\n      pop\n        /* \"#utility.yul\":6044:6191   */\n      swap3\n      swap2\n      pop\n      pop\n      jump\t// out\n        /* \"#utility.yul\":6197:6311   */\n    tag_122:\n      pop\n      jump\t// out\n        /* \"#utility.yul\":6317:6715   */\n    tag_123:\n        /* \"#utility.yul\":6476:6479   */\n      0x00\n        /* \"#utility.yul\":6497:6580   */\n      tag_195\n        /* \"#utility.yul\":6578:6579   */\n      0x00\n        /* \"#utility.yul\":6573:6576   */\n      dup4\n        /* \"#utility.yul\":6497:6580   */\n      tag_121\n      jump\t// in\n    tag_195:\n        /* \"#utility.yul\":6490:6580   */\n      swap2\n      pop\n        /* \"#utility.yul\":6589:6682   */\n      tag_196\n        /* \"#utility.yul\":6678:6681   */\n      dup3\n        /* \"#utility.yul\":6589:6682   */\n      tag_122\n      jump\t// in\n    tag_196:\n        /* \"#utility.yul\":6707:6708   */\n      0x00\n        /* \"#utility.yul\":6702:6705   */\n      dup3\n        /* \"#utility.yul\":6698:6709   */\n      add\n        /* \"#utility.yul\":6691:6709   */\n      swap1\n      pop\n        /* \"#utility.yul\":6317:6715   */\n      swap2\n      swap1\n      pop\n      jump\t// out\n        /* \"#utility.yul\":6721:7100   */\n    tag_63:\n        /* \"#utility.yul\":6905:6908   */\n      0x00\n        /* \"#utility.yul\":6927:7074   */\n      tag_198\n        /* \"#utility.yul\":7070:7073   */\n      dup3\n        /* \"#utility.yul\":6927:7074   */\n      tag_123\n      jump\t// in\n    tag_198:\n        /* \"#utility.yul\":6920:7074   */\n      swap2\n      pop\n        /* \"#utility.yul\":7091:7094   */\n      dup2\n        /* \"#utility.yul\":7084:7094   */\n      swap1\n      pop\n        /* \"#utility.yul\":6721:7100   */\n      swap2\n      swap1\n      pop\n      jump\t// out\n        /* \"#utility.yul\":7106:7280   */\n    tag_124:\n        /* \"#utility.yul\":7246:7272   */\n      0x43616c6c20776173206e6f74207375636365737366756c6c0000000000000000\n        /* \"#utility.yul\":7242:7243   */\n      0x00\n        /* \"#utility.yul\":7234:7240   */\n      dup3\n        /* \"#utility.yul\":7230:7244   */\n      add\n        /* \"#utility.yul\":7223:7273   */\n      mstore\n        /* \"#utility.yul\":7106:7280   */\n      pop\n      jump\t// out\n        /* \"#utility.yul\":7286:7652   */\n    tag_125:\n        /* \"#utility.yul\":7428:7431   */\n      0x00\n        /* \"#utility.yul\":7449:7516   */\n      tag_201\n        /* \"#utility.yul\":7513:7515   */\n      0x18\n        /* \"#utility.yul\":7508:7511   */\n      dup4\n        /* \"#utility.yul\":7449:7516   */\n      tag_114\n      jump\t// in\n    tag_201:\n        /* \"#utility.yul\":7442:7516   */\n      swap2\n      pop\n        /* \"#utility.yul\":7525:7618   */\n      tag_202\n        /* \"#utility.yul\":7614:7617   */\n      dup3\n        /* \"#utility.yul\":7525:7618   */\n      tag_124\n      jump\t// in\n    tag_202:\n        /* \"#utility.yul\":7643:7645   */\n      0x20\n        /* \"#utility.yul\":7638:7641   */\n      dup3\n        /* \"#utility.yul\":7634:7646   */\n      add\n        /* \"#utility.yul\":7627:7646   */\n      swap1\n      pop\n        /* \"#utility.yul\":7286:7652   */\n      swap2\n      swap1\n      pop\n      jump\t// out\n        /* \"#utility.yul\":7658:8077   */\n    tag_69:\n        /* \"#utility.yul\":7824:7828   */\n      0x00\n        /* \"#utility.yul\":7862:7864   */\n      0x20\n        /* \"#utility.yul\":7851:7860   */\n      dup3\n        /* \"#utility.yul\":7847:7865   */\n      add\n        /* \"#utility.yul\":7839:7865   */\n      swap1\n      pop\n        /* \"#utility.yul\":7911:7920   */\n      dup2\n        /* \"#utility.yul\":7905:7909   */\n      dup2\n        /* \"#utility.yul\":7901:7921   */\n      sub\n        /* \"#utility.yul\":7897:7898   */\n      0x00\n        /* \"#utility.yul\":7886:7895   */\n      dup4\n        /* \"#utility.yul\":7882:7899   */\n      add\n        /* \"#utility.yul\":7875:7922   */\n      mstore\n        /* \"#utility.yul\":7939:8070   */\n      tag_204\n        /* \"#utility.yul\":8065:8069   */\n      dup2\n        /* \"#utility.yul\":7939:8070   */\n      tag_125\n      jump\t// in\n    tag_204:\n        /* \"#utility.yul\":7931:8070   */\n      swap1\n      pop\n        /* \"#utility.yul\":7658:8077   */\n      swap2\n      swap1\n      pop\n      jump\t// out\n        /* \"#utility.yul\":8083:8254   */\n    tag_126:\n        /* \"#utility.yul\":8223:8246   */\n      0x6469646e742073656e7420656e6f756768206574680000000000000000000000\n        /* \"#utility.yul\":8219:8220   */\n      0x00\n        /* \"#utility.yul\":8211:8217   */\n      dup3\n        /* \"#utility.yul\":8207:8221   */\n      add\n        /* \"#utility.yul\":8200:8247   */\n      mstore\n        /* \"#utility.yul\":8083:8254   */\n      pop\n      jump\t// out\n        /* \"#utility.yul\":8260:8626   */\n    tag_127:\n        /* \"#utility.yul\":8402:8405   */\n      0x00\n        /* \"#utility.yul\":8423:8490   */\n      tag_207\n        /* \"#utility.yul\":8487:8489   */\n      0x15\n        /* \"#utility.yul\":8482:8485   */\n      dup4\n        /* \"#utility.yul\":8423:8490   */\n      tag_114\n      jump\t// in\n    tag_207:\n        /* \"#utility.yul\":8416:8490   */\n      swap2\n      pop\n        /* \"#utility.yul\":8499:8592   */\n      tag_208\n        /* \"#utility.yul\":8588:8591   */\n      dup3\n        /* \"#utility.yul\":8499:8592   */\n      tag_126\n      jump\t// in\n    tag_208:\n        /* \"#utility.yul\":8617:8619   */\n      0x20\n        /* \"#utility.yul\":8612:8615   */\n      dup3\n        /* \"#utility.yul\":8608:8620   */\n      add\n        /* \"#utility.yul\":8601:8620   */\n      swap1\n      pop\n        /* \"#utility.yul\":8260:8626   */\n      swap2\n      swap1\n      pop\n      jump\t// out\n        /* \"#utility.yul\":8632:9051   */\n    tag_75:\n        /* \"#utility.yul\":8798:8802   */\n      0x00\n        /* \"#utility.yul\":8836:8838   */\n      0x20\n        /* \"#utility.yul\":8825:8834   */\n      dup3\n        /* \"#utility.yul\":8821:8839   */\n      add\n        /* \"#utility.yul\":8813:8839   */\n      swap1\n      pop\n        /* \"#utility.yul\":8885:8894   */\n      dup2\n        /* \"#utility.yul\":8879:8883   */\n      dup2\n        /* \"#utility.yul\":8875:8895   */\n      sub\n        /* \"#utility.yul\":8871:8872   */\n      0x00\n        /* \"#utility.yul\":8860:8869   */\n      dup4\n        /* \"#utility.yul\":8856:8873   */\n      add\n        /* \"#utility.yul\":8849:8896   */\n      mstore\n        /* \"#utility.yul\":8913:9044   */\n      tag_210\n        /* \"#utility.yul\":9039:9043   */\n      dup2\n        /* \"#utility.yul\":8913:9044   */\n      tag_127\n      jump\t// in\n    tag_210:\n        /* \"#utility.yul\":8905:9044   */\n      swap1\n      pop\n        /* \"#utility.yul\":8632:9051   */\n      swap2\n      swap1\n      pop\n      jump\t// out\n        /* \"#utility.yul\":9057:9237   */\n    tag_128:\n        /* \"#utility.yul\":9105:9182   */\n      0x4e487b7100000000000000000000000000000000000000000000000000000000\n        /* \"#utility.yul\":9102:9103   */\n      0x00\n        /* \"#utility.yul\":9095:9183   */\n      mstore\n        /* \"#utility.yul\":9202:9206   */\n      0x11\n        /* \"#utility.yul\":9199:9200   */\n      0x04\n        /* \"#utility.yul\":9192:9207   */\n      mstore\n        /* \"#utility.yul\":9226:9230   */\n      0x24\n        /* \"#utility.yul\":9223:9224   */\n      0x00\n        /* \"#utility.yul\":9216:9231   */\n      revert\n        /* \"#utility.yul\":9243:9434   */\n    tag_78:\n        /* \"#utility.yul\":9283:9286   */\n      0x00\n        /* \"#utility.yul\":9302:9322   */\n      tag_213\n        /* \"#utility.yul\":9320:9321   */\n      dup3\n        /* \"#utility.yul\":9302:9322   */\n      tag_109\n      jump\t// in\n    tag_213:\n        /* \"#utility.yul\":9297:9322   */\n      swap2\n      pop\n        /* \"#utility.yul\":9336:9356   */\n      tag_214\n        /* \"#utility.yul\":9354:9355   */\n      dup4\n        /* \"#utility.yul\":9336:9356   */\n      tag_109\n      jump\t// in\n    tag_214:\n        /* \"#utility.yul\":9331:9356   */\n      swap3\n      pop\n        /* \"#utility.yul\":9379:9380   */\n      dup3\n        /* \"#utility.yul\":9376:9377   */\n      dup3\n        /* \"#utility.yul\":9372:9381   */\n      add\n        /* \"#utility.yul\":9365:9381   */\n      swap1\n      pop\n        /* \"#utility.yul\":9400:9403   */\n      dup1\n        /* \"#utility.yul\":9397:9398   */\n      dup3\n        /* \"#utility.yul\":9394:9404   */\n      gt\n        /* \"#utility.yul\":9391:9427   */\n      iszero\n      tag_215\n      jumpi\n        /* \"#utility.yul\":9407:9425   */\n      tag_216\n      tag_128\n      jump\t// in\n    tag_216:\n        /* \"#utility.yul\":9391:9427   */\n    tag_215:\n        /* \"#utility.yul\":9243:9434   */\n      swap3\n      swap2\n      pop\n      pop\n      jump\t// out\n        /* \"#utility.yul\":9440:9850   */\n    tag_85:\n        /* \"#utility.yul\":9480:9487   */\n      0x00\n        /* \"#utility.yul\":9503:9523   */\n      tag_218\n        /* \"#utility.yul\":9521:9522   */\n      dup3\n        /* \"#utility.yul\":9503:9523   */\n      tag_109\n      jump\t// in\n    tag_218:\n        /* \"#utility.yul\":9498:9523   */\n      swap2\n      pop\n        /* \"#utility.yul\":9537:9557   */\n      tag_219\n        /* \"#utility.yul\":9555:9556   */\n      dup4\n        /* \"#utility.yul\":9537:9557   */\n      tag_109\n      jump\t// in\n    tag_219:\n        /* \"#utility.yul\":9532:9557   */\n      swap3\n      pop\n        /* \"#utility.yul\":9592:9593   */\n      dup3\n        /* \"#utility.yul\":9589:9590   */\n      dup3\n        /* \"#utility.yul\":9585:9594   */\n      mul\n        /* \"#utility.yul\":9614:9644   */\n      tag_220\n        /* \"#utility.yul\":9632:9643   */\n      dup2\n        /* \"#utility.yul\":9614:9644   */\n      tag_109\n      jump\t// in\n    tag_220:\n        /* \"#utility.yul\":9603:9644   */\n      swap2\n      pop\n        /* \"#utility.yul\":9793:9794   */\n      dup3\n        /* \"#utility.yul\":9784:9791   */\n      dup3\n        /* \"#utility.yul\":9780:9795   */\n      div\n        /* \"#utility.yul\":9777:9778   */\n      dup5\n        /* \"#utility.yul\":9774:9796   */\n      eq\n        /* \"#utility.yul\":9754:9755   */\n      dup4\n        /* \"#utility.yul\":9747:9756   */\n      iszero\n        /* \"#utility.yul\":9727:9810   */\n      or\n        /* \"#utility.yul\":9704:9843   */\n      tag_221\n      jumpi\n        /* \"#utility.yul\":9823:9841   */\n      tag_222\n      tag_128\n      jump\t// in\n    tag_222:\n        /* \"#utility.yul\":9704:9843   */\n    tag_221:\n        /* \"#utility.yul\":9488:9850   */\n      pop\n        /* \"#utility.yul\":9440:9850   */\n      swap3\n      swap2\n      pop\n      pop\n      jump\t// out\n        /* \"#utility.yul\":9856:10036   */\n    tag_129:\n        /* \"#utility.yul\":9904:9981   */\n      0x4e487b7100000000000000000000000000000000000000000000000000000000\n        /* \"#utility.yul\":9901:9902   */\n      0x00\n        /* \"#utility.yul\":9894:9982   */\n      mstore\n        /* \"#utility.yul\":10001:10005   */\n      0x12\n        /* \"#utility.yul\":9998:9999   */\n      0x04\n        /* \"#utility.yul\":9991:10006   */\n      mstore\n        /* \"#utility.yul\":10025:10029   */\n      0x24\n        /* \"#utility.yul\":10022:10023   */\n      0x00\n        /* \"#utility.yul\":10015:10030   */\n      revert\n        /* \"#utility.yul\":10042:10227   */\n    tag_87:\n        /* \"#utility.yul\":10082:10083   */\n      0x00\n        /* \"#utility.yul\":10099:10119   */\n      tag_225\n        /* \"#utility.yul\":10117:10118   */\n      dup3\n        /* \"#utility.yul\":10099:10119   */\n      tag_109\n      jump\t// in\n    tag_225:\n        /* \"#utility.yul\":10094:10119   */\n      swap2\n      pop\n        /* \"#utility.yul\":10133:10153   */\n      tag_226\n        /* \"#utility.yul\":10151:10152   */\n      dup4\n        /* \"#utility.yul\":10133:10153   */\n      tag_109\n      jump\t// in\n    tag_226:\n        /* \"#utility.yul\":10128:10153   */\n      swap3\n      pop\n        /* \"#utility.yul\":10172:10173   */\n      dup3\n        /* \"#utility.yul\":10162:10197   */\n      tag_227\n      jumpi\n        /* \"#utility.yul\":10177:10195   */\n      tag_228\n      tag_129\n      jump\t// in\n    tag_228:\n        /* \"#utility.yul\":10162:10197   */\n    tag_227:\n        /* \"#utility.yul\":10219:10220   */\n      dup3\n        /* \"#utility.yul\":10216:10217   */\n      dup3\n        /* \"#utility.yul\":10212:10221   */\n      div\n        /* \"#utility.yul\":10207:10221   */\n      swap1\n      pop\n        /* \"#utility.yul\":10042:10227   */\n      swap3\n      swap2\n      pop\n      pop\n      jump\t// out\n        /* \"#utility.yul\":10233:10338   */\n    tag_130:\n        /* \"#utility.yul\":10269:10276   */\n      0x00\n        /* \"#utility.yul\":10309:10331   */\n      0xffffffffffffffffffff\n        /* \"#utility.yul\":10302:10307   */\n      dup3\n        /* \"#utility.yul\":10298:10332   */\n      and\n        /* \"#utility.yul\":10287:10332   */\n      swap1\n      pop\n        /* \"#utility.yul\":10233:10338   */\n      swap2\n      swap1\n      pop\n      jump\t// out\n        /* \"#utility.yul\":10344:10464   */\n    tag_131:\n        /* \"#utility.yul\":10416:10439   */\n      tag_231\n        /* \"#utility.yul\":10433:10438   */\n      dup2\n        /* \"#utility.yul\":10416:10439   */\n      tag_130\n      jump\t// in\n    tag_231:\n        /* \"#utility.yul\":10409:10414   */\n      dup2\n        /* \"#utility.yul\":10406:10440   */\n      eq\n        /* \"#utility.yul\":10396:10458   */\n      tag_232\n      jumpi\n        /* \"#utility.yul\":10454:10455   */\n      0x00\n        /* \"#utility.yul\":10451:10452   */\n      dup1\n        /* \"#utility.yul\":10444:10456   */\n      revert\n        /* \"#utility.yul\":10396:10458   */\n    tag_232:\n        /* \"#utility.yul\":10344:10464   */\n      pop\n      jump\t// out\n        /* \"#utility.yul\":10470:10611   */\n    tag_132:\n        /* \"#utility.yul\":10526:10531   */\n      0x00\n        /* \"#utility.yul\":10557:10563   */\n      dup2\n        /* \"#utility.yul\":10551:10564   */\n      mload\n        /* \"#utility.yul\":10542:10564   */\n      swap1\n      pop\n        /* \"#utility.yul\":10573:10605   */\n      tag_234\n        /* \"#utility.yul\":10599:10604   */\n      dup2\n        /* \"#utility.yul\":10573:10605   */\n      tag_131\n      jump\t// in\n    tag_234:\n        /* \"#utility.yul\":10470:10611   */\n      swap3\n      swap2\n      pop\n      pop\n      jump\t// out\n        /* \"#utility.yul\":10617:10693   */\n    tag_133:\n        /* \"#utility.yul\":10653:10660   */\n      0x00\n        /* \"#utility.yul\":10682:10687   */\n      dup2\n        /* \"#utility.yul\":10671:10687   */\n      swap1\n      pop\n        /* \"#utility.yul\":10617:10693   */\n      swap2\n      swap1\n      pop\n      jump\t// out\n        /* \"#utility.yul\":10699:10819   */\n    tag_134:\n        /* \"#utility.yul\":10771:10794   */\n      tag_237\n        /* \"#utility.yul\":10788:10793   */\n      dup2\n        /* \"#utility.yul\":10771:10794   */\n      tag_133\n      jump\t// in\n    tag_237:\n        /* \"#utility.yul\":10764:10769   */\n      dup2\n        /* \"#utility.yul\":10761:10795   */\n      eq\n        /* \"#utility.yul\":10751:10813   */\n      tag_238\n      jumpi\n        /* \"#utility.yul\":10809:10810   */\n      0x00\n        /* \"#utility.yul\":10806:10807   */\n      dup1\n        /* \"#utility.yul\":10799:10811   */\n      revert\n        /* \"#utility.yul\":10751:10813   */\n    tag_238:\n        /* \"#utility.yul\":10699:10819   */\n      pop\n      jump\t// out\n        /* \"#utility.yul\":10825:10966   */\n    tag_135:\n        /* \"#utility.yul\":10881:10886   */\n      0x00\n        /* \"#utility.yul\":10912:10918   */\n      dup2\n        /* \"#utility.yul\":10906:10919   */\n      mload\n        /* \"#utility.yul\":10897:10919   */\n      swap1\n      pop\n        /* \"#utility.yul\":10928:10960   */\n      tag_240\n        /* \"#utility.yul\":10954:10959   */\n      dup2\n        /* \"#utility.yul\":10928:10960   */\n      tag_134\n      jump\t// in\n    tag_240:\n        /* \"#utility.yul\":10825:10966   */\n      swap3\n      swap2\n      pop\n      pop\n      jump\t// out\n        /* \"#utility.yul\":10972:11115   */\n    tag_136:\n        /* \"#utility.yul\":11029:11034   */\n      0x00\n        /* \"#utility.yul\":11060:11066   */\n      dup2\n        /* \"#utility.yul\":11054:11067   */\n      mload\n        /* \"#utility.yul\":11045:11067   */\n      swap1\n      pop\n        /* \"#utility.yul\":11076:11109   */\n      tag_242\n        /* \"#utility.yul\":11103:11108   */\n      dup2\n        /* \"#utility.yul\":11076:11109   */\n      tag_112\n      jump\t// in\n    tag_242:\n        /* \"#utility.yul\":10972:11115   */\n      swap3\n      swap2\n      pop\n      pop\n      jump\t// out\n        /* \"#utility.yul\":11121:12092   */\n    tag_92:\n        /* \"#utility.yul\":11224:11230   */\n      0x00\n        /* \"#utility.yul\":11232:11238   */\n      dup1\n        /* \"#utility.yul\":11240:11246   */\n      0x00\n        /* \"#utility.yul\":11248:11254   */\n      dup1\n        /* \"#utility.yul\":11256:11262   */\n      0x00\n        /* \"#utility.yul\":11305:11308   */\n      0xa0\n        /* \"#utility.yul\":11293:11302   */\n      dup7\n        /* \"#utility.yul\":11284:11291   */\n      dup9\n        /* \"#utility.yul\":11280:11303   */\n      sub\n        /* \"#utility.yul\":11276:11309   */\n      slt\n        /* \"#utility.yul\":11273:11393   */\n      iszero\n      tag_244\n      jumpi\n        /* \"#utility.yul\":11312:11391   */\n      tag_245\n      tag_103\n      jump\t// in\n    tag_245:\n        /* \"#utility.yul\":11273:11393   */\n    tag_244:\n        /* \"#utility.yul\":11432:11433   */\n      0x00\n        /* \"#utility.yul\":11457:11520   */\n      tag_246\n        /* \"#utility.yul\":11512:11519   */\n      dup9\n        /* \"#utility.yul\":11503:11509   */\n      dup3\n        /* \"#utility.yul\":11492:11501   */\n      dup10\n        /* \"#utility.yul\":11488:11510   */\n      add\n        /* \"#utility.yul\":11457:11520   */\n      tag_132\n      jump\t// in\n    tag_246:\n        /* \"#utility.yul\":11447:11520   */\n      swap6\n      pop\n        /* \"#utility.yul\":11403:11530   */\n      pop\n        /* \"#utility.yul\":11569:11571   */\n      0x20\n        /* \"#utility.yul\":11595:11658   */\n      tag_247\n        /* \"#utility.yul\":11650:11657   */\n      dup9\n        /* \"#utility.yul\":11641:11647   */\n      dup3\n        /* \"#utility.yul\":11630:11639   */\n      dup10\n        /* \"#utility.yul\":11626:11648   */\n      add\n        /* \"#utility.yul\":11595:11658   */\n      tag_135\n      jump\t// in\n    tag_247:\n        /* \"#utility.yul\":11585:11658   */\n      swap5\n      pop\n        /* \"#utility.yul\":11540:11668   */\n      pop\n        /* \"#utility.yul\":11707:11709   */\n      0x40\n        /* \"#utility.yul\":11733:11797   */\n      tag_248\n        /* \"#utility.yul\":11789:11796   */\n      dup9\n        /* \"#utility.yul\":11780:11786   */\n      dup3\n        /* \"#utility.yul\":11769:11778   */\n      dup10\n        /* \"#utility.yul\":11765:11787   */\n      add\n        /* \"#utility.yul\":11733:11797   */\n      tag_136\n      jump\t// in\n    tag_248:\n        /* \"#utility.yul\":11723:11797   */\n      swap4\n      pop\n        /* \"#utility.yul\":11678:11807   */\n      pop\n        /* \"#utility.yul\":11846:11848   */\n      0x60\n        /* \"#utility.yul\":11872:11936   */\n      tag_249\n        /* \"#utility.yul\":11928:11935   */\n      dup9\n        /* \"#utility.yul\":11919:11925   */\n      dup3\n        /* \"#utility.yul\":11908:11917   */\n      dup10\n        /* \"#utility.yul\":11904:11926   */\n      add\n        /* \"#utility.yul\":11872:11936   */\n      tag_136\n      jump\t// in\n    tag_249:\n        /* \"#utility.yul\":11862:11936   */\n      swap3\n      pop\n        /* \"#utility.yul\":11817:11946   */\n      pop\n        /* \"#utility.yul\":11985:11988   */\n      0x80\n        /* \"#utility.yul\":12012:12075   */\n      tag_250\n        /* \"#utility.yul\":12067:12074   */\n      dup9\n        /* \"#utility.yul\":12058:12064   */\n      dup3\n        /* \"#utility.yul\":12047:12056   */\n      dup10\n        /* \"#utility.yul\":12043:12065   */\n      add\n        /* \"#utility.yul\":12012:12075   */\n      tag_132\n      jump\t// in\n    tag_250:\n        /* \"#utility.yul\":12002:12075   */\n      swap2\n      pop\n        /* \"#utility.yul\":11956:12085   */\n      pop\n        /* \"#utility.yul\":11121:12092   */\n      swap3\n      swap6\n      pop\n      swap3\n      swap6\n      swap1\n      swap4\n      pop\n      jump\t// out\n        /* \"#utility.yul\":12098:12654   */\n    tag_94:\n        /* \"#utility.yul\":12137:12144   */\n      0x00\n        /* \"#utility.yul\":12160:12179   */\n      tag_252\n        /* \"#utility.yul\":12177:12178   */\n      dup3\n        /* \"#utility.yul\":12160:12179   */\n      tag_133\n      jump\t// in\n    tag_252:\n        /* \"#utility.yul\":12155:12179   */\n      swap2\n      pop\n        /* \"#utility.yul\":12193:12212   */\n      tag_253\n        /* \"#utility.yul\":12210:12211   */\n      dup4\n        /* \"#utility.yul\":12193:12212   */\n      tag_133\n      jump\t// in\n    tag_253:\n        /* \"#utility.yul\":12188:12212   */\n      swap3\n      pop\n        /* \"#utility.yul\":12247:12248   */\n      dup3\n        /* \"#utility.yul\":12244:12245   */\n      dup3\n        /* \"#utility.yul\":12240:12249   */\n      mul\n        /* \"#utility.yul\":12269:12298   */\n      tag_254\n        /* \"#utility.yul\":12286:12297   */\n      dup2\n        /* \"#utility.yul\":12269:12298   */\n      tag_133\n      jump\t// in\n    tag_254:\n        /* \"#utility.yul\":12258:12298   */\n      swap2\n      pop\n        /* \"#utility.yul\":12356:12422   */\n      0x8000000000000000000000000000000000000000000000000000000000000000\n        /* \"#utility.yul\":12353:12354   */\n      dup5\n        /* \"#utility.yul\":12350:12423   */\n      eq\n        /* \"#utility.yul\":12346:12347   */\n      0x00\n        /* \"#utility.yul\":12343:12344   */\n      dup5\n        /* \"#utility.yul\":12339:12348   */\n      slt\n        /* \"#utility.yul\":12335:12424   */\n      and\n        /* \"#utility.yul\":12332:12447   */\n      iszero\n      tag_255\n      jumpi\n        /* \"#utility.yul\":12427:12445   */\n      tag_256\n      tag_128\n      jump\t// in\n    tag_256:\n        /* \"#utility.yul\":12332:12447   */\n    tag_255:\n        /* \"#utility.yul\":12597:12598   */\n      dup3\n        /* \"#utility.yul\":12588:12595   */\n      dup3\n        /* \"#utility.yul\":12583:12599   */\n      sdiv\n        /* \"#utility.yul\":12580:12581   */\n      dup5\n        /* \"#utility.yul\":12577:12600   */\n      eq\n        /* \"#utility.yul\":12557:12558   */\n      dup4\n        /* \"#utility.yul\":12550:12559   */\n      iszero\n        /* \"#utility.yul\":12530:12614   */\n      or\n        /* \"#utility.yul\":12507:12647   */\n      tag_257\n      jumpi\n        /* \"#utility.yul\":12627:12645   */\n      tag_258\n      tag_128\n      jump\t// in\n    tag_258:\n        /* \"#utility.yul\":12507:12647   */\n    tag_257:\n        /* \"#utility.yul\":12145:12654   */\n      pop\n        /* \"#utility.yul\":12098:12654   */\n      swap3\n      swap2\n      pop\n      pop\n      jump\t// out\n\n    auxdata: 0xa26469706673582212207e170500b7a7990255423e968933e1228bfda8a248b26cde03e9bd9e3a1d18ee64736f6c63430008160033\n}\n",
				"bytecode": {
					"linkReferences": {},
					"object": "608060405234801561000f575f80fd5b503360025f6101000a81548173ffffffffffffffffffffffffffffffffffffffff021916908373ffffffffffffffffffffffffffffffffffffffff160217905550610e6a8061005d5f395ff3fe608060405260043610610054575f3560e01c80631b52b9de146100585780633e47d6f31461006e5780638da5cb5b146100aa578063b60d4288146100d4578063dc0d3dff146100de578063dc992aa01461011a575b5f80fd5b348015610063575f80fd5b5061006c610144565b005b348015610079575f80fd5b50610094600480360381019061008f9190610837565b6104ce565b6040516100a1919061087a565b60405180910390f35b3480156100b5575f80fd5b506100be6104e3565b6040516100cb91906108a2565b60405180910390f35b6100dc610508565b005b3480156100e9575f80fd5b5061010460048036038101906100ff91906108e5565b61060f565b60405161011191906108a2565b60405180910390f35b348015610125575f80fd5b5061012e610649565b60405161013b919061087a565b60405180910390f35b60025f9054906101000a900473ffffffffffffffffffffffffffffffffffffffff1673ffffffffffffffffffffffffffffffffffffffff163373ffffffffffffffffffffffffffffffffffffffff16146101d3576040517f08c379a00000000000000000000000000000000000000000000000000000000081526004016101ca9061096a565b60405180910390fd5b60025f9054906101000a900473ffffffffffffffffffffffffffffffffffffffff1673ffffffffffffffffffffffffffffffffffffffff163373ffffffffffffffffffffffffffffffffffffffff1614610262576040517f08c379a0000000000000000000000000000000000000000000000000000000008152600401610259906109d2565b60405180910390fd5b5f80808054905090505f8290505b81811015610306575f80828154811061028c5761028b6109f0565b5b905f5260205f20015f9054906101000a900473ffffffffffffffffffffffffffffffffffffffff1690505f60015f8373ffffffffffffffffffffffffffffffffffffffff1673ffffffffffffffffffffffffffffffffffffffff1681526020019081526020015f2081905550508080600101915050610270565b505f67ffffffffffffffff81111561032157610320610a1d565b5b60405190808252806020026020018201604052801561034f5781602001602082028036833780820191505090505b505f9080519060200190610364929190610737565b503373ffffffffffffffffffffffffffffffffffffffff166108fc4790811502906040515f60405180830381858888f193505050501580156103a8573d5f803e3d5ffd5b505f3373ffffffffffffffffffffffffffffffffffffffff166108fc4790811502906040515f60405180830381858888f19350505050905080610420576040517f08c379a000000000000000000000000000000000000000000000000000000000815260040161041790610a94565b60405180910390fd5b5f3373ffffffffffffffffffffffffffffffffffffffff164760405161044590610adf565b5f6040518083038185875af1925050503d805f811461047f576040519150601f19603f3d011682016040523d82523d5f602084013e610484565b606091505b50509050806104c8576040517f08c379a00000000000000000000000000000000000000000000000000000000081526004016104bf90610b3d565b60405180910390fd5b50505050565b6001602052805f5260405f205f915090505481565b60025f9054906101000a900473ffffffffffffffffffffffffffffffffffffffff1681565b674563918244f4000061051a34610655565b101561055b576040517f08c379a000000000000000000000000000000000000000000000000000000000815260040161055290610ba5565b60405180910390fd5b5f33908060018154018082558091505060019003905f5260205f20015f9091909190916101000a81548173ffffffffffffffffffffffffffffffffffffffff021916908373ffffffffffffffffffffffffffffffffffffffff1602179055503460015f3373ffffffffffffffffffffffffffffffffffffffff1673ffffffffffffffffffffffffffffffffffffffff1681526020019081526020015f205f8282546106069190610bf0565b92505081905550565b5f818154811061061d575f80fd5b905f5260205f20015f915054906101000a900473ffffffffffffffffffffffffffffffffffffffff1681565b674563918244f4000081565b5f8061065f61068d565b90505f670de0b6b3a764000084836106779190610c23565b6106819190610c91565b90508092505050919050565b5f8073694aa1769357215de4fac081bf1f309adc32530690505f8173ffffffffffffffffffffffffffffffffffffffff1663feaf968c6040518163ffffffff1660e01b815260040160a060405180830381865afa1580156106f0573d5f803e3d5ffd5b505050506040513d601f19601f820116820180604052508101906107149190610d47565b5050509150505f6402540be4008261072c9190610dbe565b905080935050505090565b828054828255905f5260205f209081019282156107ad579160200282015b828111156107ac578251825f6101000a81548173ffffffffffffffffffffffffffffffffffffffff021916908373ffffffffffffffffffffffffffffffffffffffff16021790555091602001919060010190610755565b5b5090506107ba91906107be565b5090565b5b808211156107d5575f815f9055506001016107bf565b5090565b5f80fd5b5f73ffffffffffffffffffffffffffffffffffffffff82169050919050565b5f610806826107dd565b9050919050565b610816816107fc565b8114610820575f80fd5b50565b5f813590506108318161080d565b92915050565b5f6020828403121561084c5761084b6107d9565b5b5f61085984828501610823565b91505092915050565b5f819050919050565b61087481610862565b82525050565b5f60208201905061088d5f83018461086b565b92915050565b61089c816107fc565b82525050565b5f6020820190506108b55f830184610893565b92915050565b6108c481610862565b81146108ce575f80fd5b50565b5f813590506108df816108bb565b92915050565b5f602082840312156108fa576108f96107d9565b5b5f610907848285016108d1565b91505092915050565b5f82825260208201905092915050565b7f6f776e6572206f6e6c7920617574686f726973656400000000000000000000005f82015250565b5f610954601583610910565b915061095f82610920565b602082019050919050565b5f6020820190508181035f83015261098181610948565b9050919050565b7f796f7520617265206e6f7420617574686f7269736564000000000000000000005f82015250565b5f6109bc601683610910565b91506109c782610988565b602082019050919050565b5f6020820190508181035f8301526109e9816109b0565b9050919050565b7f4e487b71000000000000000000000000000000000000000000000000000000005f52603260045260245ffd5b7f4e487b71000000000000000000000000000000000000000000000000000000005f52604160045260245ffd5b7f53656e6420776173206e6f74207375636365737366756c6c00000000000000005f82015250565b5f610a7e601883610910565b9150610a8982610a4a565b602082019050919050565b5f6020820190508181035f830152610aab81610a72565b9050919050565b5f81905092915050565b50565b5f610aca5f83610ab2565b9150610ad582610abc565b5f82019050919050565b5f610ae982610abf565b9150819050919050565b7f43616c6c20776173206e6f74207375636365737366756c6c00000000000000005f82015250565b5f610b27601883610910565b9150610b3282610af3565b602082019050919050565b5f6020820190508181035f830152610b5481610b1b565b9050919050565b7f6469646e742073656e7420656e6f7567682065746800000000000000000000005f82015250565b5f610b8f601583610910565b9150610b9a82610b5b565b602082019050919050565b5f6020820190508181035f830152610bbc81610b83565b9050919050565b7f4e487b71000000000000000000000000000000000000000000000000000000005f52601160045260245ffd5b5f610bfa82610862565b9150610c0583610862565b9250828201905080821115610c1d57610c1c610bc3565b5b92915050565b5f610c2d82610862565b9150610c3883610862565b9250828202610c4681610862565b91508282048414831517610c5d57610c5c610bc3565b5b5092915050565b7f4e487b71000000000000000000000000000000000000000000000000000000005f52601260045260245ffd5b5f610c9b82610862565b9150610ca683610862565b925082610cb657610cb5610c64565b5b828204905092915050565b5f69ffffffffffffffffffff82169050919050565b610cdf81610cc1565b8114610ce9575f80fd5b50565b5f81519050610cfa81610cd6565b92915050565b5f819050919050565b610d1281610d00565b8114610d1c575f80fd5b50565b5f81519050610d2d81610d09565b92915050565b5f81519050610d41816108bb565b92915050565b5f805f805f60a08688031215610d6057610d5f6107d9565b5b5f610d6d88828901610cec565b9550506020610d7e88828901610d1f565b9450506040610d8f88828901610d33565b9350506060610da088828901610d33565b9250506080610db188828901610cec565b9150509295509295909350565b5f610dc882610d00565b9150610dd383610d00565b9250828202610de181610d00565b91507f800000000000000000000000000000000000000000000000000000000000000084145f84121615610e1857610e17610bc3565b5b8282058414831517610e2d57610e2c610bc3565b5b509291505056fea26469706673582212207e170500b7a7990255423e968933e1228bfda8a248b26cde03e9bd9e3a1d18ee64736f6c63430008160033",
					"opcodes": "PUSH1 0x80 PUSH1 0x40 MSTORE CALLVALUE DUP1 ISZERO PUSH2 0xF JUMPI PUSH0 DUP1 REVERT JUMPDEST POP CALLER PUSH1 0x2 PUSH0 PUSH2 0x100 EXP DUP2 SLOAD DUP2 PUSH20 0xFFFFFFFFFFFFFFFFFFFFFFFFFFFFFFFFFFFFFFFF MUL NOT AND SWAP1 DUP4 PUSH20 0xFFFFFFFFFFFFFFFFFFFFFFFFFFFFFFFFFFFFFFFF AND MUL OR SWAP1 SSTORE POP PUSH2 0xE6A DUP1 PUSH2 0x5D PUSH0 CODECOPY PUSH0 RETURN INVALID PUSH1 0x80 PUSH1 0x40 MSTORE PUSH1 0x4 CALLDATASIZE LT PUSH2 0x54 JUMPI PUSH0 CALLDATALOAD PUSH1 0xE0 SHR DUP1 PUSH4 0x1B52B9DE EQ PUSH2 0x58 JUMPI DUP1 PUSH4 0x3E47D6F3 EQ PUSH2 0x6E JUMPI DUP1 PUSH4 0x8DA5CB5B EQ PUSH2 0xAA JUMPI DUP1 PUSH4 0xB60D4288 EQ PUSH2 0xD4 JUMPI DUP1 PUSH4 0xDC0D3DFF EQ PUSH2 0xDE JUMPI DUP1 PUSH4 0xDC992AA0 EQ PUSH2 0x11A JUMPI JUMPDEST PUSH0 DUP1 REVERT JUMPDEST CALLVALUE DUP1 ISZERO PUSH2 0x63 JUMPI PUSH0 DUP1 REVERT JUMPDEST POP PUSH2 0x6C PUSH2 0x144 JUMP JUMPDEST STOP JUMPDEST CALLVALUE DUP1 ISZERO PUSH2 0x79 JUMPI PUSH0 DUP1 REVERT JUMPDEST POP PUSH2 0x94 PUSH1 0x4 DUP1 CALLDATASIZE SUB DUP2 ADD SWAP1 PUSH2 0x8F SWAP2 SWAP1 PUSH2 0x837 JUMP JUMPDEST PUSH2 0x4CE JUMP JUMPDEST PUSH1 0x40 MLOAD PUSH2 0xA1 SWAP2 SWAP1 PUSH2 0x87A JUMP JUMPDEST PUSH1 0x40 MLOAD DUP1 SWAP2 SUB SWAP1 RETURN JUMPDEST CALLVALUE DUP1 ISZERO PUSH2 0xB5 JUMPI PUSH0 DUP1 REVERT JUMPDEST POP PUSH2 0xBE PUSH2 0x4E3 JUMP JUMPDEST PUSH1 0x40 MLOAD PUSH2 0xCB SWAP2 SWAP1 PUSH2 0x8A2 JUMP JUMPDEST PUSH1 0x40 MLOAD DUP1 SWAP2 SUB SWAP1 RETURN JUMPDEST PUSH2 0xDC PUSH2 0x508 JUMP JUMPDEST STOP JUMPDEST CALLVALUE DUP1 ISZERO PUSH2 0xE9 JUMPI PUSH0 DUP1 REVERT JUMPDEST POP PUSH2 0x104 PUSH1 0x4 DUP1 CALLDATASIZE SUB DUP2 ADD SWAP1 PUSH2 0xFF SWAP2 SWAP1 PUSH2 0x8E5 JUMP JUMPDEST PUSH2 0x60F JUMP JUMPDEST PUSH1 0x40 MLOAD PUSH2 0x111 SWAP2 SWAP1 PUSH2 0x8A2 JUMP JUMPDEST PUSH1 0x40 MLOAD DUP1 SWAP2 SUB SWAP1 RETURN JUMPDEST CALLVALUE DUP1 ISZERO PUSH2 0x125 JUMPI PUSH0 DUP1 REVERT JUMPDEST POP PUSH2 0x12E PUSH2 0x649 JUMP JUMPDEST PUSH1 0x40 MLOAD PUSH2 0x13B SWAP2 SWAP1 PUSH2 0x87A JUMP JUMPDEST PUSH1 0x40 MLOAD DUP1 SWAP2 SUB SWAP1 RETURN JUMPDEST PUSH1 0x2 PUSH0 SWAP1 SLOAD SWAP1 PUSH2 0x100 EXP SWAP1 DIV PUSH20 0xFFFFFFFFFFFFFFFFFFFFFFFFFFFFFFFFFFFFFFFF AND PUSH20 0xFFFFFFFFFFFFFFFFFFFFFFFFFFFFFFFFFFFFFFFF AND CALLER PUSH20 0xFFFFFFFFFFFFFFFFFFFFFFFFFFFFFFFFFFFFFFFF AND EQ PUSH2 0x1D3 JUMPI PUSH1 0x40 MLOAD PUSH32 0x8C379A000000000000000000000000000000000000000000000000000000000 DUP2 MSTORE PUSH1 0x4 ADD PUSH2 0x1CA SWAP1 PUSH2 0x96A JUMP JUMPDEST PUSH1 0x40 MLOAD DUP1 SWAP2 SUB SWAP1 REVERT JUMPDEST PUSH1 0x2 PUSH0 SWAP1 SLOAD SWAP1 PUSH2 0x100 EXP SWAP1 DIV PUSH20 0xFFFFFFFFFFFFFFFFFFFFFFFFFFFFFFFFFFFFFFFF AND PUSH20 0xFFFFFFFFFFFFFFFFFFFFFFFFFFFFFFFFFFFFFFFF AND CALLER PUSH20 0xFFFFFFFFFFFFFFFFFFFFFFFFFFFFFFFFFFFFFFFF AND EQ PUSH2 0x262 JUMPI PUSH1 0x40 MLOAD PUSH32 0x8C379A000000000000000000000000000000000000000000000000000000000 DUP2 MSTORE PUSH1 0x4 ADD PUSH2 0x259 SWAP1 PUSH2 0x9D2 JUMP JUMPDEST PUSH1 0x40 MLOAD DUP1 SWAP2 SUB SWAP1 REVERT JUMPDEST PUSH0 DUP1 DUP1 DUP1 SLOAD SWAP1 POP SWAP1 POP PUSH0 DUP3 SWAP1 POP JUMPDEST DUP2 DUP2 LT ISZERO PUSH2 0x306 JUMPI PUSH0 DUP1 DUP3 DUP2 SLOAD DUP2 LT PUSH2 0x28C JUMPI PUSH2 0x28B PUSH2 0x9F0 JUMP JUMPDEST JUMPDEST SWAP1 PUSH0 MSTORE PUSH1 0x20 PUSH0 KECCAK256 ADD PUSH0 SWAP1 SLOAD SWAP1 PUSH2 0x100 EXP SWAP1 DIV PUSH20 0xFFFFFFFFFFFFFFFFFFFFFFFFFFFFFFFFFFFFFFFF AND SWAP1 POP PUSH0 PUSH1 0x1 PUSH0 DUP4 PUSH20 0xFFFFFFFFFFFFFFFFFFFFFFFFFFFFFFFFFFFFFFFF AND PUSH20 0xFFFFFFFFFFFFFFFFFFFFFFFFFFFFFFFFFFFFFFFF AND DUP2 MSTORE PUSH1 0x20 ADD SWAP1 DUP2 MSTORE PUSH1 0x20 ADD PUSH0 KECCAK256 DUP2 SWAP1 SSTORE POP POP DUP1 DUP1 PUSH1 0x1 ADD SWAP2 POP POP PUSH2 0x270 JUMP JUMPDEST POP PUSH0 PUSH8 0xFFFFFFFFFFFFFFFF DUP2 GT ISZERO PUSH2 0x321 JUMPI PUSH2 0x320 PUSH2 0xA1D JUMP JUMPDEST JUMPDEST PUSH1 0x40 MLOAD SWAP1 DUP1 DUP3 MSTORE DUP1 PUSH1 0x20 MUL PUSH1 0x20 ADD DUP3 ADD PUSH1 0x40 MSTORE DUP1 ISZERO PUSH2 0x34F JUMPI DUP2 PUSH1 0x20 ADD PUSH1 0x20 DUP3 MUL DUP1 CALLDATASIZE DUP4 CALLDATACOPY DUP1 DUP3 ADD SWAP2 POP POP SWAP1 POP JUMPDEST POP PUSH0 SWAP1 DUP1 MLOAD SWAP1 PUSH1 0x20 ADD SWAP1 PUSH2 0x364 SWAP3 SWAP2 SWAP1 PUSH2 0x737 JUMP JUMPDEST POP CALLER PUSH20 0xFFFFFFFFFFFFFFFFFFFFFFFFFFFFFFFFFFFFFFFF AND PUSH2 0x8FC SELFBALANCE SWAP1 DUP2 ISZERO MUL SWAP1 PUSH1 0x40 MLOAD PUSH0 PUSH1 0x40 MLOAD DUP1 DUP4 SUB DUP2 DUP6 DUP9 DUP9 CALL SWAP4 POP POP POP POP ISZERO DUP1 ISZERO PUSH2 0x3A8 JUMPI RETURNDATASIZE PUSH0 DUP1 RETURNDATACOPY RETURNDATASIZE PUSH0 REVERT JUMPDEST POP PUSH0 CALLER PUSH20 0xFFFFFFFFFFFFFFFFFFFFFFFFFFFFFFFFFFFFFFFF AND PUSH2 0x8FC SELFBALANCE SWAP1 DUP2 ISZERO MUL SWAP1 PUSH1 0x40 MLOAD PUSH0 PUSH1 0x40 MLOAD DUP1 DUP4 SUB DUP2 DUP6 DUP9 DUP9 CALL SWAP4 POP POP POP POP SWAP1 POP DUP1 PUSH2 0x420 JUMPI PUSH1 0x40 MLOAD PUSH32 0x8C379A000000000000000000000000000000000000000000000000000000000 DUP2 MSTORE PUSH1 0x4 ADD PUSH2 0x417 SWAP1 PUSH2 0xA94 JUMP JUMPDEST PUSH1 0x40 MLOAD DUP1 SWAP2 SUB SWAP1 REVERT JUMPDEST PUSH0 CALLER PUSH20 0xFFFFFFFFFFFFFFFFFFFFFFFFFFFFFFFFFFFFFFFF AND SELFBALANCE PUSH1 0x40 MLOAD PUSH2 0x445 SWAP1 PUSH2 0xADF JUMP JUMPDEST PUSH0 PUSH1 0x40 MLOAD DUP1 DUP4 SUB DUP2 DUP6 DUP8 GAS CALL SWAP3 POP POP POP RETURNDATASIZE DUP1 PUSH0 DUP2 EQ PUSH2 0x47F JUMPI PUSH1 0x40 MLOAD SWAP2 POP PUSH1 0x1F NOT PUSH1 0x3F RETURNDATASIZE ADD AND DUP3 ADD PUSH1 0x40 MSTORE RETURNDATASIZE DUP3 MSTORE RETURNDATASIZE PUSH0 PUSH1 0x20 DUP5 ADD RETURNDATACOPY PUSH2 0x484 JUMP JUMPDEST PUSH1 0x60 SWAP2 POP JUMPDEST POP POP SWAP1 POP DUP1 PUSH2 0x4C8 JUMPI PUSH1 0x40 MLOAD PUSH32 0x8C379A000000000000000000000000000000000000000000000000000000000 DUP2 MSTORE PUSH1 0x4 ADD PUSH2 0x4BF SWAP1 PUSH2 0xB3D JUMP JUMPDEST PUSH1 0x40 MLOAD DUP1 SWAP2 SUB SWAP1 REVERT JUMPDEST POP POP POP POP JUMP JUMPDEST PUSH1 0x1 PUSH1 0x20 MSTORE DUP1 PUSH0 MSTORE PUSH1 0x40 PUSH0 KECCAK256 PUSH0 SWAP2 POP SWAP1 POP SLOAD DUP2 JUMP JUMPDEST PUSH1 0x2 PUSH0 SWAP1 SLOAD SWAP1 PUSH2 0x100 EXP SWAP1 DIV PUSH20 0xFFFFFFFFFFFFFFFFFFFFFFFFFFFFFFFFFFFFFFFF AND DUP2 JUMP JUMPDEST PUSH8 0x4563918244F40000 PUSH2 0x51A CALLVALUE PUSH2 0x655 JUMP JUMPDEST LT ISZERO PUSH2 0x55B JUMPI PUSH1 0x40 MLOAD PUSH32 0x8C379A000000000000000000000000000000000000000000000000000000000 DUP2 MSTORE PUSH1 0x4 ADD PUSH2 0x552 SWAP1 PUSH2 0xBA5 JUMP JUMPDEST PUSH1 0x40 MLOAD DUP1 SWAP2 SUB SWAP1 REVERT JUMPDEST PUSH0 CALLER SWAP1 DUP1 PUSH1 0x1 DUP2 SLOAD ADD DUP1 DUP3 SSTORE DUP1 SWAP2 POP POP PUSH1 0x1 SWAP1 SUB SWAP1 PUSH0 MSTORE PUSH1 0x20 PUSH0 KECCAK256 ADD PUSH0 SWAP1 SWAP2 SWAP1 SWAP2 SWAP1 SWAP2 PUSH2 0x100 EXP DUP2 SLOAD DUP2 PUSH20 0xFFFFFFFFFFFFFFFFFFFFFFFFFFFFFFFFFFFFFFFF MUL NOT AND SWAP1 DUP4 PUSH20 0xFFFFFFFFFFFFFFFFFFFFFFFFFFFFFFFFFFFFFFFF AND MUL OR SWAP1 SSTORE POP CALLVALUE PUSH1 0x1 PUSH0 CALLER PUSH20 0xFFFFFFFFFFFFFFFFFFFFFFFFFFFFFFFFFFFFFFFF AND PUSH20 0xFFFFFFFFFFFFFFFFFFFFFFFFFFFFFFFFFFFFFFFF AND DUP2 MSTORE PUSH1 0x20 ADD SWAP1 DUP2 MSTORE PUSH1 0x20 ADD PUSH0 KECCAK256 PUSH0 DUP3 DUP3 SLOAD PUSH2 0x606 SWAP2 SWAP1 PUSH2 0xBF0 JUMP JUMPDEST SWAP3 POP POP DUP2 SWAP1 SSTORE POP JUMP JUMPDEST PUSH0 DUP2 DUP2 SLOAD DUP2 LT PUSH2 0x61D JUMPI PUSH0 DUP1 REVERT JUMPDEST SWAP1 PUSH0 MSTORE PUSH1 0x20 PUSH0 KECCAK256 ADD PUSH0 SWAP2 POP SLOAD SWAP1 PUSH2 0x100 EXP SWAP1 DIV PUSH20 0xFFFFFFFFFFFFFFFFFFFFFFFFFFFFFFFFFFFFFFFF AND DUP2 JUMP JUMPDEST PUSH8 0x4563918244F40000 DUP2 JUMP JUMPDEST PUSH0 DUP1 PUSH2 0x65F PUSH2 0x68D JUMP JUMPDEST SWAP1 POP PUSH0 PUSH8 0xDE0B6B3A7640000 DUP5 DUP4 PUSH2 0x677 SWAP2 SWAP1 PUSH2 0xC23 JUMP JUMPDEST PUSH2 0x681 SWAP2 SWAP1 PUSH2 0xC91 JUMP JUMPDEST SWAP1 POP DUP1 SWAP3 POP POP POP SWAP2 SWAP1 POP JUMP JUMPDEST PUSH0 DUP1 PUSH20 0x694AA1769357215DE4FAC081BF1F309ADC325306 SWAP1 POP PUSH0 DUP2 PUSH20 0xFFFFFFFFFFFFFFFFFFFFFFFFFFFFFFFFFFFFFFFF AND PUSH4 0xFEAF968C PUSH1 0x40 MLOAD DUP2 PUSH4 0xFFFFFFFF AND PUSH1 0xE0 SHL DUP2 MSTORE PUSH1 0x4 ADD PUSH1 0xA0 PUSH1 0x40 MLOAD DUP1 DUP4 SUB DUP2 DUP7 GAS STATICCALL ISZERO DUP1 ISZERO PUSH2 0x6F0 JUMPI RETURNDATASIZE PUSH0 DUP1 RETURNDATACOPY RETURNDATASIZE PUSH0 REVERT JUMPDEST POP POP POP POP PUSH1 0x40 MLOAD RETURNDATASIZE PUSH1 0x1F NOT PUSH1 0x1F DUP3 ADD AND DUP3 ADD DUP1 PUSH1 0x40 MSTORE POP DUP2 ADD SWAP1 PUSH2 0x714 SWAP2 SWAP1 PUSH2 0xD47 JUMP JUMPDEST POP POP POP SWAP2 POP POP PUSH0 PUSH5 0x2540BE400 DUP3 PUSH2 0x72C SWAP2 SWAP1 PUSH2 0xDBE JUMP JUMPDEST SWAP1 POP DUP1 SWAP4 POP POP POP POP SWAP1 JUMP JUMPDEST DUP3 DUP1 SLOAD DUP3 DUP3 SSTORE SWAP1 PUSH0 MSTORE PUSH1 0x20 PUSH0 KECCAK256 SWAP1 DUP2 ADD SWAP3 DUP3 ISZERO PUSH2 0x7AD JUMPI SWAP2 PUSH1 0x20 MUL DUP3 ADD JUMPDEST DUP3 DUP2 GT ISZERO PUSH2 0x7AC JUMPI DUP3 MLOAD DUP3 PUSH0 PUSH2 0x100 EXP DUP2 SLOAD DUP2 PUSH20 0xFFFFFFFFFFFFFFFFFFFFFFFFFFFFFFFFFFFFFFFF MUL NOT AND SWAP1 DUP4 PUSH20 0xFFFFFFFFFFFFFFFFFFFFFFFFFFFFFFFFFFFFFFFF AND MUL OR SWAP1 SSTORE POP SWAP2 PUSH1 0x20 ADD SWAP2 SWAP1 PUSH1 0x1 ADD SWAP1 PUSH2 0x755 JUMP JUMPDEST JUMPDEST POP SWAP1 POP PUSH2 0x7BA SWAP2 SWAP1 PUSH2 0x7BE JUMP JUMPDEST POP SWAP1 JUMP JUMPDEST JUMPDEST DUP1 DUP3 GT ISZERO PUSH2 0x7D5 JUMPI PUSH0 DUP2 PUSH0 SWAP1 SSTORE POP PUSH1 0x1 ADD PUSH2 0x7BF JUMP JUMPDEST POP SWAP1 JUMP JUMPDEST PUSH0 DUP1 REVERT JUMPDEST PUSH0 PUSH20 0xFFFFFFFFFFFFFFFFFFFFFFFFFFFFFFFFFFFFFFFF DUP3 AND SWAP1 POP SWAP2 SWAP1 POP JUMP JUMPDEST PUSH0 PUSH2 0x806 DUP3 PUSH2 0x7DD JUMP JUMPDEST SWAP1 POP SWAP2 SWAP1 POP JUMP JUMPDEST PUSH2 0x816 DUP2 PUSH2 0x7FC JUMP JUMPDEST DUP2 EQ PUSH2 0x820 JUMPI PUSH0 DUP1 REVERT JUMPDEST POP JUMP JUMPDEST PUSH0 DUP2 CALLDATALOAD SWAP1 POP PUSH2 0x831 DUP2 PUSH2 0x80D JUMP JUMPDEST SWAP3 SWAP2 POP POP JUMP JUMPDEST PUSH0 PUSH1 0x20 DUP3 DUP5 SUB SLT ISZERO PUSH2 0x84C JUMPI PUSH2 0x84B PUSH2 0x7D9 JUMP JUMPDEST JUMPDEST PUSH0 PUSH2 0x859 DUP5 DUP3 DUP6 ADD PUSH2 0x823 JUMP JUMPDEST SWAP2 POP POP SWAP3 SWAP2 POP POP JUMP JUMPDEST PUSH0 DUP2 SWAP1 POP SWAP2 SWAP1 POP JUMP JUMPDEST PUSH2 0x874 DUP2 PUSH2 0x862 JUMP JUMPDEST DUP3 MSTORE POP POP JUMP JUMPDEST PUSH0 PUSH1 0x20 DUP3 ADD SWAP1 POP PUSH2 0x88D PUSH0 DUP4 ADD DUP5 PUSH2 0x86B JUMP JUMPDEST SWAP3 SWAP2 POP POP JUMP JUMPDEST PUSH2 0x89C DUP2 PUSH2 0x7FC JUMP JUMPDEST DUP3 MSTORE POP POP JUMP JUMPDEST PUSH0 PUSH1 0x20 DUP3 ADD SWAP1 POP PUSH2 0x8B5 PUSH0 DUP4 ADD DUP5 PUSH2 0x893 JUMP JUMPDEST SWAP3 SWAP2 POP POP JUMP JUMPDEST PUSH2 0x8C4 DUP2 PUSH2 0x862 JUMP JUMPDEST DUP2 EQ PUSH2 0x8CE JUMPI PUSH0 DUP1 REVERT JUMPDEST POP JUMP JUMPDEST PUSH0 DUP2 CALLDATALOAD SWAP1 POP PUSH2 0x8DF DUP2 PUSH2 0x8BB JUMP JUMPDEST SWAP3 SWAP2 POP POP JUMP JUMPDEST PUSH0 PUSH1 0x20 DUP3 DUP5 SUB SLT ISZERO PUSH2 0x8FA JUMPI PUSH2 0x8F9 PUSH2 0x7D9 JUMP JUMPDEST JUMPDEST PUSH0 PUSH2 0x907 DUP5 DUP3 DUP6 ADD PUSH2 0x8D1 JUMP JUMPDEST SWAP2 POP POP SWAP3 SWAP2 POP POP JUMP JUMPDEST PUSH0 DUP3 DUP3 MSTORE PUSH1 0x20 DUP3 ADD SWAP1 POP SWAP3 SWAP2 POP POP JUMP JUMPDEST PUSH32 0x6F776E6572206F6E6C7920617574686F72697365640000000000000000000000 PUSH0 DUP3 ADD MSTORE POP JUMP JUMPDEST PUSH0 PUSH2 0x954 PUSH1 0x15 DUP4 PUSH2 0x910 JUMP JUMPDEST SWAP2 POP PUSH2 0x95F DUP3 PUSH2 0x920 JUMP JUMPDEST PUSH1 0x20 DUP3 ADD SWAP1 POP SWAP2 SWAP1 POP JUMP JUMPDEST PUSH0 PUSH1 0x20 DUP3 ADD SWAP1 POP DUP2 DUP2 SUB PUSH0 DUP4 ADD MSTORE PUSH2 0x981 DUP2 PUSH2 0x948 JUMP JUMPDEST SWAP1 POP SWAP2 SWAP1 POP JUMP JUMPDEST PUSH32 0x796F7520617265206E6F7420617574686F726973656400000000000000000000 PUSH0 DUP3 ADD MSTORE POP JUMP JUMPDEST PUSH0 PUSH2 0x9BC PUSH1 0x16 DUP4 PUSH2 0x910 JUMP JUMPDEST SWAP2 POP PUSH2 0x9C7 DUP3 PUSH2 0x988 JUMP JUMPDEST PUSH1 0x20 DUP3 ADD SWAP1 POP SWAP2 SWAP1 POP JUMP JUMPDEST PUSH0 PUSH1 0x20 DUP3 ADD SWAP1 POP DUP2 DUP2 SUB PUSH0 DUP4 ADD MSTORE PUSH2 0x9E9 DUP2 PUSH2 0x9B0 JUMP JUMPDEST SWAP1 POP SWAP2 SWAP1 POP JUMP JUMPDEST PUSH32 0x4E487B7100000000000000000000000000000000000000000000000000000000 PUSH0 MSTORE PUSH1 0x32 PUSH1 0x4 MSTORE PUSH1 0x24 PUSH0 REVERT JUMPDEST PUSH32 0x4E487B7100000000000000000000000000000000000000000000000000000000 PUSH0 MSTORE PUSH1 0x41 PUSH1 0x4 MSTORE PUSH1 0x24 PUSH0 REVERT JUMPDEST PUSH32 0x53656E6420776173206E6F74207375636365737366756C6C0000000000000000 PUSH0 DUP3 ADD MSTORE POP JUMP JUMPDEST PUSH0 PUSH2 0xA7E PUSH1 0x18 DUP4 PUSH2 0x910 JUMP JUMPDEST SWAP2 POP PUSH2 0xA89 DUP3 PUSH2 0xA4A JUMP JUMPDEST PUSH1 0x20 DUP3 ADD SWAP1 POP SWAP2 SWAP1 POP JUMP JUMPDEST PUSH0 PUSH1 0x20 DUP3 ADD SWAP1 POP DUP2 DUP2 SUB PUSH0 DUP4 ADD MSTORE PUSH2 0xAAB DUP2 PUSH2 0xA72 JUMP JUMPDEST SWAP1 POP SWAP2 SWAP1 POP JUMP JUMPDEST PUSH0 DUP2 SWAP1 POP SWAP3 SWAP2 POP POP JUMP JUMPDEST POP JUMP JUMPDEST PUSH0 PUSH2 0xACA PUSH0 DUP4 PUSH2 0xAB2 JUMP JUMPDEST SWAP2 POP PUSH2 0xAD5 DUP3 PUSH2 0xABC JUMP JUMPDEST PUSH0 DUP3 ADD SWAP1 POP SWAP2 SWAP1 POP JUMP JUMPDEST PUSH0 PUSH2 0xAE9 DUP3 PUSH2 0xABF JUMP JUMPDEST SWAP2 POP DUP2 SWAP1 POP SWAP2 SWAP1 POP JUMP JUMPDEST PUSH32 0x43616C6C20776173206E6F74207375636365737366756C6C0000000000000000 PUSH0 DUP3 ADD MSTORE POP JUMP JUMPDEST PUSH0 PUSH2 0xB27 PUSH1 0x18 DUP4 PUSH2 0x910 JUMP JUMPDEST SWAP2 POP PUSH2 0xB32 DUP3 PUSH2 0xAF3 JUMP JUMPDEST PUSH1 0x20 DUP3 ADD SWAP1 POP SWAP2 SWAP1 POP JUMP JUMPDEST PUSH0 PUSH1 0x20 DUP3 ADD SWAP1 POP DUP2 DUP2 SUB PUSH0 DUP4 ADD MSTORE PUSH2 0xB54 DUP2 PUSH2 0xB1B JUMP JUMPDEST SWAP1 POP SWAP2 SWAP1 POP JUMP JUMPDEST PUSH32 0x6469646E742073656E7420656E6F756768206574680000000000000000000000 PUSH0 DUP3 ADD MSTORE POP JUMP JUMPDEST PUSH0 PUSH2 0xB8F PUSH1 0x15 DUP4 PUSH2 0x910 JUMP JUMPDEST SWAP2 POP PUSH2 0xB9A DUP3 PUSH2 0xB5B JUMP JUMPDEST PUSH1 0x20 DUP3 ADD SWAP1 POP SWAP2 SWAP1 POP JUMP JUMPDEST PUSH0 PUSH1 0x20 DUP3 ADD SWAP1 POP DUP2 DUP2 SUB PUSH0 DUP4 ADD MSTORE PUSH2 0xBBC DUP2 PUSH2 0xB83 JUMP JUMPDEST SWAP1 POP SWAP2 SWAP1 POP JUMP JUMPDEST PUSH32 0x4E487B7100000000000000000000000000000000000000000000000000000000 PUSH0 MSTORE PUSH1 0x11 PUSH1 0x4 MSTORE PUSH1 0x24 PUSH0 REVERT JUMPDEST PUSH0 PUSH2 0xBFA DUP3 PUSH2 0x862 JUMP JUMPDEST SWAP2 POP PUSH2 0xC05 DUP4 PUSH2 0x862 JUMP JUMPDEST SWAP3 POP DUP3 DUP3 ADD SWAP1 POP DUP1 DUP3 GT ISZERO PUSH2 0xC1D JUMPI PUSH2 0xC1C PUSH2 0xBC3 JUMP JUMPDEST JUMPDEST SWAP3 SWAP2 POP POP JUMP JUMPDEST PUSH0 PUSH2 0xC2D DUP3 PUSH2 0x862 JUMP JUMPDEST SWAP2 POP PUSH2 0xC38 DUP4 PUSH2 0x862 JUMP JUMPDEST SWAP3 POP DUP3 DUP3 MUL PUSH2 0xC46 DUP2 PUSH2 0x862 JUMP JUMPDEST SWAP2 POP DUP3 DUP3 DIV DUP5 EQ DUP4 ISZERO OR PUSH2 0xC5D JUMPI PUSH2 0xC5C PUSH2 0xBC3 JUMP JUMPDEST JUMPDEST POP SWAP3 SWAP2 POP POP JUMP JUMPDEST PUSH32 0x4E487B7100000000000000000000000000000000000000000000000000000000 PUSH0 MSTORE PUSH1 0x12 PUSH1 0x4 MSTORE PUSH1 0x24 PUSH0 REVERT JUMPDEST PUSH0 PUSH2 0xC9B DUP3 PUSH2 0x862 JUMP JUMPDEST SWAP2 POP PUSH2 0xCA6 DUP4 PUSH2 0x862 JUMP JUMPDEST SWAP3 POP DUP3 PUSH2 0xCB6 JUMPI PUSH2 0xCB5 PUSH2 0xC64 JUMP JUMPDEST JUMPDEST DUP3 DUP3 DIV SWAP1 POP SWAP3 SWAP2 POP POP JUMP JUMPDEST PUSH0 PUSH10 0xFFFFFFFFFFFFFFFFFFFF DUP3 AND SWAP1 POP SWAP2 SWAP1 POP JUMP JUMPDEST PUSH2 0xCDF DUP2 PUSH2 0xCC1 JUMP JUMPDEST DUP2 EQ PUSH2 0xCE9 JUMPI PUSH0 DUP1 REVERT JUMPDEST POP JUMP JUMPDEST PUSH0 DUP2 MLOAD SWAP1 POP PUSH2 0xCFA DUP2 PUSH2 0xCD6 JUMP JUMPDEST SWAP3 SWAP2 POP POP JUMP JUMPDEST PUSH0 DUP2 SWAP1 POP SWAP2 SWAP1 POP JUMP JUMPDEST PUSH2 0xD12 DUP2 PUSH2 0xD00 JUMP JUMPDEST DUP2 EQ PUSH2 0xD1C JUMPI PUSH0 DUP1 REVERT JUMPDEST POP JUMP JUMPDEST PUSH0 DUP2 MLOAD SWAP1 POP PUSH2 0xD2D DUP2 PUSH2 0xD09 JUMP JUMPDEST SWAP3 SWAP2 POP POP JUMP JUMPDEST PUSH0 DUP2 MLOAD SWAP1 POP PUSH2 0xD41 DUP2 PUSH2 0x8BB JUMP JUMPDEST SWAP3 SWAP2 POP POP JUMP JUMPDEST PUSH0 DUP1 PUSH0 DUP1 PUSH0 PUSH1 0xA0 DUP7 DUP9 SUB SLT ISZERO PUSH2 0xD60 JUMPI PUSH2 0xD5F PUSH2 0x7D9 JUMP JUMPDEST JUMPDEST PUSH0 PUSH2 0xD6D DUP9 DUP3 DUP10 ADD PUSH2 0xCEC JUMP JUMPDEST SWAP6 POP POP PUSH1 0x20 PUSH2 0xD7E DUP9 DUP3 DUP10 ADD PUSH2 0xD1F JUMP JUMPDEST SWAP5 POP POP PUSH1 0x40 PUSH2 0xD8F DUP9 DUP3 DUP10 ADD PUSH2 0xD33 JUMP JUMPDEST SWAP4 POP POP PUSH1 0x60 PUSH2 0xDA0 DUP9 DUP3 DUP10 ADD PUSH2 0xD33 JUMP JUMPDEST SWAP3 POP POP PUSH1 0x80 PUSH2 0xDB1 DUP9 DUP3 DUP10 ADD PUSH2 0xCEC JUMP JUMPDEST SWAP2 POP POP SWAP3 SWAP6 POP SWAP3 SWAP6 SWAP1 SWAP4 POP JUMP JUMPDEST PUSH0 PUSH2 0xDC8 DUP3 PUSH2 0xD00 JUMP JUMPDEST SWAP2 POP PUSH2 0xDD3 DUP4 PUSH2 0xD00 JUMP JUMPDEST SWAP3 POP DUP3 DUP3 MUL PUSH2 0xDE1 DUP2 PUSH2 0xD00 JUMP JUMPDEST SWAP2 POP PUSH32 0x8000000000000000000000000000000000000000000000000000000000000000 DUP5 EQ PUSH0 DUP5 SLT AND ISZERO PUSH2 0xE18 JUMPI PUSH2 0xE17 PUSH2 0xBC3 JUMP JUMPDEST JUMPDEST DUP3 DUP3 SDIV DUP5 EQ DUP4 ISZERO OR PUSH2 0xE2D JUMPI PUSH2 0xE2C PUSH2 0xBC3 JUMP JUMPDEST JUMPDEST POP SWAP3 SWAP2 POP POP JUMP INVALID LOG2 PUSH5 0x6970667358 0x22 SLT KECCAK256 PUSH31 0x170500B7A7990255423E968933E1228BFDA8A248B26CDE03E9BD9E3A1D18EE PUSH5 0x736F6C6343 STOP ADDMOD AND STOP CALLER "
				},
				"gasEstimates": {
					"creation": {
						"codeDepositCost": "738000",
						"executionCost": "25036",
						"totalCost": "763036"
					},
					"external": {
						"addressToAmountFunded(address)": "2802",
						"fund()": "infinite",
						"funders(uint256)": "5009",
						"minUSD()": "413",
						"owner()": "2530",
						"withdrawAllMoney()": "infinite"
					}
				},
				"methodIdentifiers": {
					"addressToAmountFunded(address)": "3e47d6f3",
					"fund()": "b60d4288",
					"funders(uint256)": "dc0d3dff",
					"minUSD()": "dc992aa0",
					"owner()": "8da5cb5b",
					"withdrawAllMoney()": "1b52b9de"
				}
			},
			"storageLayout": {
				"storage": [
					{
						"astId": 60,
						"contract": "solidity/FundMeV3.sol:FundMe",
						"label": "funders",
						"offset": 0,
						"slot": "0",
						"type": "t_array(t_address)dyn_storage"
					},
					{
						"astId": 64,
						"contract": "solidity/FundMeV3.sol:FundMe",
						"label": "addressToAmountFunded",
						"offset": 0,
						"slot": "1",
						"type": "t_mapping(t_address,t_uint256)"
					},
					{
						"astId": 66,
						"contract": "solidity/FundMeV3.sol:FundMe",
						"label": "owner",
						"offset": 0,
						"slot": "2",
						"type": "t_address"
					}
				],
				"types": {
					"t_address": {
						"encoding": "inplace",
						"label": "address",
						"numberOfBytes": "20"
					},
					"t_array(t_address)dyn_storage": {
						"base": "t_address",
						"encoding": "dynamic_array",
						"label": "address[]",
						"numberOfBytes": "32"
					},
					"t_mapping(t_address,t_uint256)": {
						"encoding": "mapping",
						"key": "t_address",
						"label": "mapping(address => uint256)",
						"numberOfBytes": "32",
						"value": "t_uint256"
					},
					"t_uint256": {
						"encoding": "inplace",
						"label": "uint256",
						"numberOfBytes": "32"
					}
				}
			},
			"userdoc": {
				"kind": "user",
				"methods": {},
				"version": 1
			}
		}
	}
}